:1000000000800020E11B0000211C0000231C0000D8
:1000100000000000000000000000000000000000E0
:10002000000000000000000000000000251C00008F
:100030000000000000000000271C0000291C000038
:10004000691B00001D4000000D1700002B1C000064
:100050002B1C000000000000410E00002B1C0000C3
:10006000D14F00002B1C00002B1C0000B919000010
:100070002B1C00002B1C00002B1C00002B1C000064
:100080002B1C0000DD0500002B1C00002B1C0000B9
:10009000B9060000854300002B1C00002B1C00004B
:1000A0002B1C00002B1C00000000000000000000C2
:1000B0000000000000000000000000000000000040
:1000C000054B0648033310B51B1A062B03D9044B06
:1000D000002B00D0984710BD980000209800002009
:1000E000000000000648074910B5091A8910CB0F17
:1000F0005918491003D0044B002B00D0984710BD6D
:1001000098000020980000200000000010B5074C67
:100110002378002B09D1FFF7D3FF054B002B02D02A
:10012000044800E000BF0123237010BD98000020A8
:100130000000000080520000094B10B5002B03D0D6
:100140000849094800E000BF08480368002B02D1B5
:10015000FFF7C8FF10BD064B002BF9D09847F7E713
:10016000000000009C00002080520000940000204D
:1001700000000000144B002B00D1124B9D46402282
:1001800092029A1A924600218B460F461148124A53
:10019000121A00F081F80D4B002B00D098470C4B41
:1001A000002B00D098470020002104000D000B48D0
:1001B00000F016F800F04CF82000290001F0FCFFD8
:1001C00000F016F800000800008000200000000089
:1001D0000000000098000020580700201D020000C9
:1001E00010B5010000230022002000F09FF810BD90
:1001F000084B10B50400002B02D0002100F00EF9CE
:10020000054B1868836A002B00D09847200000F047
:1002100099F9C0461D0400000052000070B5094B5A
:10022000094CE41AA41009D0084AA518AD00ED182D
:100230002B68013C9847043D002CF9D104F0DAFF0B
:1002400070BDC0469000002094000020FFFFFF3FDB
:1002500070B50D4E0D4D0024AD1BAD1005D0A300A3
:10026000F35801349847A542F9D104F0BDFF084E78
:10027000084D0024AD1BAD1005D0A300F358013488
:100280009847A542F9D170BD8C0000208C00002059
:100290008C00002090000020F0B5830743D0541E4E
:1002A000002A3FD0CEB20200032502E01A00013C32
:1002B00038D3531C16702B42F8D1032C2AD9FF22B5
:1002C0000A40150215432A0415430F2C14D92700A0
:1002D0001A00103F3E09013636019E19156055601F
:1002E0009560D56010329642F8D10F2297431037AF
:1002F000DB191440032C0DD91A00271FBE08013644
:10030000B6009E1920C2B242FCD1032297430437A3
:10031000DB191440002C05D0C9B21C191970013327
:100320009C42FBD1F0BD14000300C6E7F0B5474680
:10033000CE4680B5354E83B0346805000F00914637
:100340009846002C40D063681F2B12DD304B002BE9
:1003500059D08C2000E000BF041E54D03268002326
:1003600002608822436030608350002D3AD1873A82
:1003700019E0002D15D08822A05800282FD07832FF
:10038000865849469A0082181160012199400E430F
:100390008946802149004650802641469151022DD0
:1003A0000BD01D005A1C00200235AD0062602F5199
:1003B00003B00CBC90469946F0BD82224D465200D7
:1003C00081580D438550ECE7124C134B3460002BE1
:1003D000B9D01B6801938823019AE250B3E70C4B14
:1003E000002B10D08420400000E000BF00280AD07D
:1003F0008022002352008350043283508833E0501F
:1004000000266368BDE701204042D1E7400100209B
:1004100000000000B400002000000000F0B5DE463F
:10042000454657464E46E0B5444B85B01B680390A1
:100430008B469846002B4FD0404B5F46994642462C
:1004400088235568D3589A466C1E54D48023AD0037
:1004500056195B00043D55449B460BE05346002B68
:1004600004D02B0080331B689F4205D0043E043D1E
:10047000013C40D3002FF1D143465B687268013BD9
:10048000A34232D000237360002AEFD043465B685A
:1004900001935346002B26D0012351465846A340D2
:1004A000095819421FD08220514640000958029134
:1004B00019421DD12968039890474346019A5B6809
:1004C0009A4203D14B461B684345CFD01B4BBB46DA
:1004D0001B689846002BAFD105B03CBC90469946AE
:1004E000A246AB46F0BD9047E7E743465C60CBE7EA
:1004F00028689047E1E7124B002BEDD043465B683C
:10050000002B16D143461B68002BE5D04A461360EA
:100510005346002B02D0504600E000BF404600E0AA
:1005200000BF4B461B6898464346002B00D086E729
:10053000D2E743461B68C1469846F5E740010020D4
:1005400000000000FEE7C04610B500290DD00923C9
:10055000002A01D1180010BD541E2240FAD1826039
:1005600001608480C2600023F4E70E23F2E7C046F6
:10057000030010B59C888068DA68121A042094423F
:1005800000D210BDDA68002014401A681155DA68EC
:100590000132DA60F5E7C04610B58468C26803002E
:1005A0000520944209D09A68988802401868825CB5
:1005B00000200A709A6801329A6010BD002300B5CD
:1005C00085B001AA9060002103481380536001F0B8
:1005D000DFFB05B000BDC04601400000A021F0B522
:1005E0000023C6462B4A490000B5535004315350EE
:1005F00004315350043153504C395350043153504B
:10060000254B1B68002B35D0244900265458244A1A
:10061000244F1268A41A00222402240A904602E001
:10062000002D18D02B001A68A24214D8A41AB618AC
:100630001A7CDD69002AF3D0424699691A745A6916
:100640003B68002B19D0100098470028E8D0FFF72E
:10065000B5FF002DE6D11449144A0B7812789A425E
:100660000ED0134A9B009E5080218023114A4903DB
:100670005B00D15004BC9046F0BD08009047CFE726
:100680000132D3B2022B01D00B70EAE700230B70CA
:10069000E7E7C046001001406401002004050000A7
:1006A00060010020440100205D0100205C01002069
:1006B0005401002000E100E0F0B55746DE464E460A
:1006C0004546E0B5AE4BAF4A1B68AF499A4609783C
:1006D00013788BB0994200D118E10133DBB2022BC1
:1006E00000D117E11370A94A9B009E5853469B19ED
:1006F0001B02A34A1B0A136001230693A44B00208C
:100700001B789B46A34B5A461B689846A04B454610
:100710005C785B68474603939D4B9B780493984BAA
:100720001B6809939C4B1B78079300230893059340
:100730000193A2421CD00399530089469B18049947
:100740000132DB00D2B24B448A4200D1D4E01978A6
:10075000022900D1A0E00329EBD1002FE9D03874A1
:10076000FF69002FFBD1012300250193A242E2D1B2
:10077000019B91469C46059B002B00D0D9E0089B2D
:10078000002B02D07E4B099A1A606346002B01D0E1
:10079000804B1D60069B002B00D067E14346DB1BAE
:1007A0005A1E93410025DBB206937B4B3E001B781B
:1007B0000793734B1B689846764B1B680193002385
:1007C000029305939C46754B9A46002D28D06B6882
:1007D000A9682C00ED6942469A1A1202120A524583
:1007E00051D85218226063466360A36001232374CA
:1007F0006346E361002E00D1BAE0316830009142D7
:1008000005D3ADE01968914200D397E01800C369A1
:10081000521A002BF6D12260E361C461002DD6D1BB
:100820005B464846984200D1BCE003995A0089468D
:10083000D21804990133D200DBB24A44994200D164
:100840009BE00124117805940129EBD15468217CA7
:1008500005910029E6D19B46936881466360D16883
:10086000A1601069E0605269A261079A002A00D174
:10087000F5E0059B05926360424600239A1A120236
:10088000120A5245ADD94246D31A1B021B0A8B42AB
:100890005AD2CA1A2260A6E75B68002F00D148E747
:1008A0003900BB422AD09146019A94461A0002E0D0
:1008B0009A4207D01900CB69002BF9D163464A460A
:1008C000019336E7634602920193029B4A4699469A
:1008D0008B4214D04B461B6802934B46DB6999460A
:1008E000CB61002B00D124E71B6849469C46029B44
:1008F0002F0063440B601CE7002228E7B946FF691C
:10090000002F09D001233D000193E3E700230026D7
:100910000693F3E60023E5E60125214B9D600123C4
:10092000019308930023099301330025059307934E
:10093000D0E76A46184B127F1A7020E7891A1960AF
:100940002260E361C46169E7634623606360A3607A
:10095000012323746346E361002E09D0002231682D
:1009600001238A1A32600194E661029326002CE783
:10097000012301942600029327E7002361E7C04684
:10098000600100205C0100205D0100205401002076
:10099000480100206401002050010020FEFF7F007C
:1009A00000100140059B002B00D0D9E0029B002BDA
:1009B00002D06D4B019A1A60BE4253D0002E00D176
:1009C00097E06A4A6A496B4C88584246821A12027A
:1009D0002578120A33680332002D21D18025D126D3
:1009E0006D02B6008D51403E8D51C0278026624D6C
:1009F000B6027F00EE512E6001250D605F49604F09
:100A00000E682F21C046C046C046C046C046C046FC
:100A1000C046C046BE4200D0C0460139F2D1257062
:100A2000934200D21300A824434451491B021B0ADD
:100A3000E4004E4D0B514A591B1A121A1202120AA7
:100A40001B0203321B0A9A4239D800234D4A137005
:100A50000BB03CBC90469946A246AB46F0BD012285
:100A60000592B8E6069B002BEFD0A7E73E4B00248B
:100A70001B6800250021002013E03A68B24218D814
:100A8000F968B61AA4183860FB69002907D05246E5
:100A9000FD613D0012191202120A7A60B9601F004E
:100AA0000699002FE9D1002900D17EE62E4A136075
:100AB0007BE6002900D050E0961B3E6075E64B595E
:100AC0000B512E4B2E491A682F23C046C046C046F4
:100AD000C046C046C046C046C0468A4200D0C04656
:100AE000013BF2D180218023234A89025B00D1504F
:100AF000ABE780218023204A8902D1508023D22174
:100B000001241B4A5B0289005350403953501B4B50
:100B1000546019682F231A481D00C046C046C046BD
:100B2000C046C046C046C046C046814200D0C0460E
:100B3000013DF2D19460144A1660C046C046C046DA
:100B4000C046C046C046C046C046814200D0C046EE
:100B5000013BF2D1074B1E7077E703490B60ABE70F
:100B60000A4B187022E7C04664010020040500000B
:100B7000001001405101002000E100E06C00002065
:100B80000024F400500100206001002048010020F2
:100B900072B6024A1368013313607047680100207F
:100BA000034A1368013B1360002B00D162B6704703
:100BB0006801002030B5047885B0012C22D0002CCB
:100BC00011D0022C0DD102AB1C70C3680122254943
:100BD00025480193039300F097FC244B02A81B685F
:100BE000984705B030BD224C22482100FFF7D4FCC5
:100BF000002823D0032302AA13701C4B10001B688B
:100C00009847EEE743681C4D19782800FFF7B0FCC1
:100C1000002819D1AA68EB689A4205D002AB187077
:100C2000124B02A81B689847A968AA88EB685B1A50
:100C30009A4211D20122114B1A70D2E701222100EF
:100C4000094800F0D9FBCCE702AB1C70074B0390BE
:100C50001B6802A89847E7E701220249024800F012
:100C600053FCBEE794010020640000206C010020CA
:100C700098010020840100207001002080010020E4
:100C8000F0B51E00254B050089B00C001A60072046
:100C9000002906D08A8822480968FFF755FC0028F9
:100CA00001D009B0F0BDA289A1681E48FFF74CFC35
:100CB0000028F6D16A461C4B694691CB91C291CB74
:100CC00091C211CB11C26B6906932B7C0E775A1E11
:100CD00093410B756B7C0E22581E83415B421A4078
:100CE000EB684A750293AB6803932B6801936B68BA
:100CF00000930E4C0E4A200000F0D8FA0028D0D104
:100D00000C4B18702B680133CBD0200000F0E0FCB6
:100D100001220949200000F0F7FBC2E76C01002026
:100D200070010020840100200852000064000020AF
:100D3000B50B0000800100209401002070B50B4C21
:100D400001000B482678FFF727FC0500002E01D193
:100D5000280070BD0023012206490748237000F0D7
:100D6000D3FB0028F4D0FFF729FCF1E78001002035
:100D7000700100209401002064000020F8B50E4DA1
:100D800001002800FFF7F4FB041E01D02000F8BD8D
:100D90000A4E300000F0AAFB0028F7D1084F2800C7
:100DA0003900FFF7F9FB0028F0D1012239003000AB
:100DB00000F022FB0400E9E7840100206400002029
:100DC00098010020F0B500281EDB1B4A032494463E
:100DD000FF2217008308C026C0B20440E400890146
:100DE000A7400A40A2409B006344B6009D59BD4302
:100DF0002A439A511F23C02118401E3B83400E4AAC
:100E0000490053501360F0BDFF240C4A032594465B
:100E100022000F23C0B20540ED008901AA400C401A
:100E2000AC400340083B9B089B006344DE6996434B
:100E30003443DC61DEE7C04600E100E000ED00E0A5
:100E4000F0B5DE4657464E4645460021E0B5C54A58
:100E500087B0039113680024012B00D1B4E1C24B89
:100E60001A68012A00D1A3E1C04B1A68012A00D1F7
:100E700092E1BF4B1A68012A00D181E1BD4B1A688B
:100E8000012A00D161E123071CD0BB4BA227984661
:100E90000323012600259946FF0026420ED0B74ABB
:100EA000AB009A18D059D1594246D358002B05D0DF
:100EB0004A46090CC0041140C00E9847013576001F
:100EC000042DEAD1002C06DB07B03CBC90469946C5
:100ED000A246AB46F0BD00230493013B0593C1330A
:100EE0009A46B93B9B464023A34AD1564B1C2DD072
:100EF000C9B2534608005A46984301230A4093401A
:100F0000C60805AA925D134220D09B4A9A4C12183B
:100F100020321278890952B29200A258002A00D1D8
:100F2000F1E0032900D1F1E0A025ED05AC46E02574
:100F300087006744ED007D5903ACA65DAD03AD0F9E
:100F4000334200D0B9E0032D00D187E102230093A2
:100F5000013B0326994600254123874AD1564B1C65
:100F60002FD0C9B2534608005A46984301230A407D
:100F70009340C70805AAD25D134222D07E4A7E4C18
:100F8000121820321278890952B29200A2580192A6
:100F9000002A00D1C8E0032900D1C8E0A024E4055C
:100FA000A04682009044E0224446D200A25803ACFE
:100FB000E75D9203920F3B4200D08FE0032A00D1FD
:100FC00037E142236C4AD1564B1C2DD0C9B253464F
:100FD00008005A46984301230A409340C70805AACF
:100FE000D25D134220D0644A634C1218203212782A
:100FF000890952B29200A658002E00D18CE0032934
:1010000000D18BE0A024E405A44682009444E022B1
:101010006446D200A25803ACE75D9203920F3B42B4
:1010200068D1032A00D1EFE04323534AD1564B1C29
:101030002AD0C9B2534608005E46984301230E40A9
:10104000B340C20805AEB65C33421DD04A4C890994
:1010500026182036367876B2B600A659002E6CD007
:1010600003296CD0A024E405A4468700BC44E027F3
:101070006446FF00E75903ACA25CBF03BF0F1342F5
:1010800012D1032F00D1A8E0002D00D11CE7A2232C
:10109000A022DB00D205D358039A9A4200D113E76D
:1010A0000393049B05931EE7022FEDD1032900D182
:1010B000EEE0002EE8D0B047E6E7022D00D045E78D
:1010C000032900D1E7E002230093013B0326994660
:1010D0000025002A00D13FE790473DE7022A00D0D3
:1010E0006FE7032900D1DAE0019B002B00D168E70C
:1010F000984766E7022A97D1032900D1C5E0002E60
:1011000092D0B04790E7032900D01FE704ACA5199F
:101110002F781F432F7007E7032985D104AAD2191E
:1011200014781C4314706DE7032900D049E704AA22
:10113000D21914781C43147030E70329A4D104ACED
:10114000A7183C781C433C708CE700221A6080236F
:101150001B061C43A022A223D205DB00D358039315
:1011600091E6C04600610040046100400861004013
:101170000C6100407C6100409C0100200060004048
:10118000C12248499200895808220A4200D175E6D6
:1011900000211443196071E6C12242499200895826
:1011A00004220A4200D164E600211443196060E67B
:1011B000C1223C499200895802220A4200D153E6DA
:1011C0000021144319604FE6C120364C800024589A
:1011D0001C4000D143E6116041E6032900D068E7D6
:1011E0008027BF02E0236246DB00D5582E4A6446C2
:1011F00015406246D550D2584D463A43E250002E33
:1012000000D144E7B0473FE7032900D077E78027C4
:10121000BF02E0236246DB00D558234A64461540EE
:101220006246D550D2584D463A43E250009B99460B
:1012300065E7032900D057E78027BF02E023424635
:101240004446DB00D258184D2A40E250E2584D4641
:101250003A43E250009B0096994645E7032900D0A7
:1012600031E780239B029C46E0236446DB00FE5866
:101270000D4D2E40FE50FD5804262543FD500323FE
:101280000093013B9946012523E7C027BF02C0E731
:10129000C027BF02A6E7C0239B029C46E4E7C02705
:1012A000BF02CBE700600040FFFFFCFFF8B5CE4671
:1012B000474680B505794A4CEF007B1B9B00E3183D
:1012C000DB7E060091460820002B03D00CBC904624
:1012D0009946F8BD0868431C0CD00123A122834025
:1012E000A020D200C005835003220B68C133FF3316
:1012F0009B001A504B685A1C06D0A0200022C13314
:10130000FF339B00C0051A5030688A69354BC250C4
:10131000087D4B7D32680343334813500A683368B5
:10132000944632484A681A50624631481A500B7D3A
:10133000012B2DD04A467B1B9B00E01842600A69B6
:10134000E2504B46002B12D08E2200233068520010
:10135000097F8350306828328350C1233068254A82
:101360009B00C2503368180B40B2FFF72BFDA0233F
:1013700004213268DB00D150002301227D1BAD0027
:101380006419E3752376A375E276A37600209DE7C2
:101390008B685A1C06D0A0200022C133FF339B006B
:1013A000C0051A50CB685A1C0ED001209840A122CB
:1013B0000300A020D200C00583500322CB68C133B4
:1013C000FF339B001A50CB688A6830689446A1228C
:1013D000D2008350A2236246DB00C250AAE7C04677
:1013E000E4010020240500006C0500001405000045
:1013F0000C05000080000200F0B557464E464546F9
:10140000DE46E0B50479374EE3001B1B9B00F31862
:101410009D7D1127002D06D038003CBC9046994692
:10142000A246AB46F0BD8E249D8299609A750379E1
:1014300001229C46036864001D51036800279A60DE
:1014400063466246DB009A1A9200B2189846936887
:10145000016899460D514D46938AED5C938A01339C
:101460009BB29382204BCD505368002BD4D1937DF7
:1014700080259B466D001100938A14315B4518D27C
:10148000016802E0938AAB4202D00B59002BF9D0DD
:10149000938AAB42EFD000234F460B51938AFB5CFB
:1014A0009A465746938A01339BB293820E4BCF5094
:1014B000E1E780230A885B009A4210D08E210268FF
:1014C00049005358002BFCD001230027D36043462A
:1014D00062469B1A9B00F6180023B3759CE70F2702
:1014E000F5E7C046E40100201C0500000279D300A6
:1014F0009B1A044A9B00D318987D431E9841C0B2A2
:101500007047C046E4010020F0B54E4645465746B8
:10151000DE46E0B506796D4DF3009C1BA4002C1946
:10152000676885B088469146002F07D08124A400C3
:10153000A446614605340268FF3411519B1B9B0091
:10154000EB18DC7D002C0DD01C7E002C2ED0002F43
:1015500000D1B6E08121C123026889009B00D150EF
:1015600011201CE04A46DA7542465C76DA601C7649
:101570000779FB009946DB1B9B00EB189B7E002B39
:101580006BD04B46D91B890069184B68002B1BD0C8
:101590008121C1230268002089009B00D15005B041
:1015A0003CBC90469946A246AB46F0BD42461A6105
:1015B0004A461A760779FB0099464B46D91B8900A3
:1015C00069184B68002BE3D1A22204685200A35093
:1015D00001922E3AFF3A93460232944684248C4478
:1015E00064006246A246884603688B4403920297D1
:1015F000922252009A58019C9446511E8A415146AB
:1016000059581E59D2B23400671EBC41E4B20029B9
:1016100004D1002E02D161460029E9D0002A3DD133
:10162000002C3BD159460978002922D10934FF34D6
:101630001A51A3224146D2009B58029F4B7E4B4633
:10164000DF1B0023BF00ED19EB75AB7E002B31D003
:101650000122036800201A60A1E79222016852006B
:101660008B5001681C3A8B500368083AFF3A1A60A5
:1016700087E75246A3219C50039CC90022785B58FF
:101680004146C9688B545A4623780133DBB2237034
:10169000237812789A4216D90368A9E74B46029F2D
:1016A000DF1B0023BF00ED19EB756346002B06D04E
:1016B000032074E70122036800205A606FE70F20BF
:1016C0006DE711206BE7029FB9E7C046E4010020F7
:1016D00010B501790C4ACB005B1A9B00D3189B7E96
:1016E000002B10D1922104684900635004681C3912
:1016F000635003680839FF3919600079C3001B1A69
:101700009B00D218917610BDE4010020C12310B5D2
:10171000614A9B00D35884B09B054FD592235B0050
:10172000D15800294AD00021D1508121E5338900C8
:10173000FF33D150594B997E002901D101315160BD
:10174000022269460A7090215348C900425842500B
:1017500069460392DA7D68460A72DA68196801926E
:101760000022DA751A765B6898478E214A4A49004A
:101770005358002B0FD0494B9C8A987D84424FD2FE
:1017800000205050998A9868405C998A013189B24A
:101790009982434BD050A2233F4A5B00D158002985
:1017A0000AD00021D1503D4B997E002901D0012162
:1017B0001160DA7D002A42D104B010BDC123364A3F
:1017C0009B00D3585B07D0D5842149005358002B88
:1017D000CBD0324BD87D00283ED15050A321C90038
:1017E00052585A7E8242C0D11A7E002A42D19A7E35
:1017F000002A02D10121284A51608120C2222649B3
:10180000800092008850002268460121DA755A7ED5
:1018100001700272DA68196801925B689847A4E760
:10182000002454500028B6D06A46147010729A688A
:101830009C75196801925B6868469847ABE700227F
:1018400068460121DA755A7E01700272DA681968F9
:1018500001925B689847AFE700205050A320C0007A
:10186000597E1258D86842545A7ED87D0132D2B27D
:101870005A76B6E7DA751A69D968DA6000226C46DA
:10188000587E1A765A7601322072019122701968B8
:1018900068465B68984768E700200040E401002044
:1018A0001C05000070B504000E00002A0BD0417921
:1018B000114B8800C250114D4B005B185B5D082036
:1018C000002B02D070BD0720FCE70420B178205621
:1018D000FFF778FAA12332882168DB00CA506279C9
:1018E000317953009B18EA185170F17800209170FB
:1018F00001225A55E6E7C0460402002000020020FB
:101900000122022103681A60427953009B18014AA0
:101910009954704700020020F0B58025D2246D0252
:101920008D400668A40035510668403C3551477922
:101930001E4E7C00E419341964781202120A002C3D
:101940001AD00C0051340768FF34A400E251046837
:10195000174FE759BC46BF1A624502D9154A94464B
:1019600067444279944652006244B618B6780D2214
:10197000B74208DA1000F0BD0C005134FF3406689D
:10198000A400A2510468002B0AD000235031890022
:1019900089B261180B60C12302689B00D5500468AE
:1019A000D1239B00E5500022E4E7C046000200205E
:1019B00004050000FFFFFF00C12210B5354B920067
:1019C000995880225202114203D0334908680028F6
:1019D0003CD1C1222F4B9200995880229202114291
:1019E00003D02E49086800283CD1C122294B92001F
:1019F00099588022D202114203D029490868002850
:101A00003CD1C122234B92009A58D20704D58022A0
:101A100052009958002912D1C1221E4B92009A58A7
:101A2000920704D5822252009958002900D110BD96
:101A3000002199501B4B05201B689847F7E70021B0
:101A40009950184B04201B689847E5E7D220800086
:101A50001A5040381A5000230B60124B00201B68AC
:101A60009847B6E7D22080001A5040381A50002319
:101A70000B600C4B01201B689847B6E7D220800012
:101A80001A5040381A5000230B60064B02201B6886
:101A90009847B6E700B0004040B1004044B1004074
:101AA00048B100400402002010B50E4C8520237878
:101AB000002B00D010BD6360A3602361E3600A4B7C
:101AC0001B68DB0708D5A32280210123D200C905AA
:101AD0008B5000202370EDE703210020FFF772F9FF
:101AE000F1E7C0460802002000E100E070B51B4DA0
:101AF0000400AB78002B0ED0002802D043680120F0
:101B000098470020FFF744F8EB6800200133EB60B2
:101B1000FFF746F870BD0020FFF73AF8002C0DD013
:101B20002A69002A08D0944208D0130001E09C42A0
:101B300004D01B68002BFAD122602C61EB68002BCB
:101B4000E2D1074A02211360C123053A9B00FF3A04
:101B5000D1500122034B1A60D6E7C046080200208C
:101B6000040100400800004010B51A4B1A68002A12
:101B700014D0002280211A60C2220123164C920048
:101B8000C9058B506370A368002B07D01A6800202A
:101B90005B68A2609847A368002BF7D10F4B1A68C7
:101BA000002A15D000221A60C223802202219B0045
:101BB000D205D1500123084CA3702369002B07D014
:101BC0001A6801205B68226198472369002BF7D1CE
:101BD00010BDC04600010040080200200401004082
:101BE00003210A4802680A430260094802680A435E
:101BF00002600849084A094B9B1A03DD043BC85898
:101C0000D050FBDC00F012F8FEF7B4FA24050040D7
:101C1000540500408C520000000000209800002075
:101C2000FEE7FEE7FEE7FEE7FEE7FEE72E4B1B784A
:101C3000012B00D070472D4B1B681B07FAD1F022F7
:101C40002B4B1B68134027D12A4B1B6813422BD008
:101C5000264B1B681B07EDD1F022254B1B68134058
:101C6000402B2DD0F022224B1B681340A02B01D01B
:101C7000D02BDFD1F0231F4A12681A42DAD11E4A54
:101C80001368012B04D01D4B13601368012BFCD18A
:101C9000C0221B4B1A60CDE7102B01D0302BDBD1BB
:101CA000144B1B681342D7D1164A174B1A60802277
:101CB000164B12021A600C4B1B78012BC8D0B9E7E7
:101CC0000C4B1B681342CDD1C12380220121DB00C4
:101CD000D205D150044B1B78012BABD1034B1B68B1
:101CE0001B07BFD0A6E7C046E00F00F0E40F00F0EE
:101CF000E80F00F0EC0F00F000EC064075930000D8
:101D000014EC0640DFFF07C004050040186C0040DB
:101D100010B50378012B01D0022B02D14068FEF7E9
:101D20004DFC10BD0122154B10B500211A6014485E
:101D300001237C32FFF7F0FD124B13491A68013280
:101D40001A600B6801330B60032A0CD0032B09D1F6
:101D500000220E4B5A70DA705A71DA715A72DA72C6
:101D600064325A7310BD0021084A117091701171CC
:101D700091711172917264311173E7E708B00040FC
:101D8000485200007002002078020020200200204B
:101D9000BFF34F8F034A044BDA60BFF34F8FC04647
:101DA000FDE7C0460400FA0500ED00E030B58BB059
:101DB00004A802000C4B32CB32C232CB32C20B4BE6
:101DC0000B4A0093012301930A4B69460293802337
:101DD0005B000393FD3BFEF753FF002801D0FEF7A5
:101DE000EDFB0BB030BDC046285200007C02002045
:101DF000111D000080020020F0B5022457464E4617
:101E00004546DE460122E0B526005E485E4903787D
:101E10005DB22E401340334304263700B3462F40B3
:101E200004363B433700B4462F4008363B432E4030
:101E300033432026B0462E4033434026B1462E4041
:101E4000334316000B704378ED0F1E407600354388
:101E500026001E40771EBE41B60035435E461E403A
:101E6000771EBE41F600354366461E40771EBE41D2
:101E70003601354310261E40771EBE4176012E43A3
:101E80004546B2461D406E1EB5415646AD0135432E
:101E900016008D709D09DB0915405B001D4383789A
:101EA0001E40B600354326001E40771EBE41F60098
:101EB00035435E461E40771EBE4136012E436546C1
:101EC000B2461D406E1EB54156466D0135430D713B
:101ED0001D091540AC4645461D406E1EB54166467F
:101EE0006D002E434D46B4461D406E1EB5416646FC
:101EF000AD0035431600DB09DB001D43C378102716
:101F00001E4036012E432500B4461D406E1EB541CD
:101F100066466D012E43B4465E461E4035006E1E79
:101F2000B54166461F40AD0135437E1EB7418D71F8
:101F3000DD0815407F003D4347461F407E1EB741E8
:101F4000BF002F434D461D406E1EB541ED002F438F
:101F50000579DB091B012A403B4392011A430A72AF
:101F60002C404023002C01D0202420336A0700D5C8
:101F70001C008C7243790B733CBC90469946A24678
:101F8000AB46F0BD3002002020020020F0B5012257
:101F90004546DE4657464E46E0B516006F4B0427D1
:101FA00019789C460E40B301994602231E000E404C
:101FB000741EA6413C000C409B46631E9C410823B6
:101FC00048B203409A4610230B405D1EAB419B0074
:101FD000984620230B405D1EAB41554689091140B0
:101FE00029434D4676012943314324010C434146A0
:101FF0005B000C435A4923434B70C30F9B01994626
:10200000634611005B780826194049018846594605
:102010001940481E814138001E4018405D09154096
:10202000441EA041741EA6411024AA4683B0090193
:102030001C4001914D46611E8C4151460D43A946FD
:10204000454649460D432900019DC0000D432843E4
:10205000B6000643424964003443CC704021080076
:102060005BB218408146604684785846204005009F
:10207000681E85411600E8004D46804660B2074064
:10208000DB0F5B0126402F4336011F4337430826F1
:10209000434626401F43731E9E4176003E43102751
:1020A0002F4B27405E717B1E9F4120230C40034035
:1020B0009A4623005C1EA3411B0101936346140052
:1020C000DE78BF013440A3009846B3081D001540D8
:1020D000A9465D46534674B225402B439A464B466B
:1020E00055462B431F43019BC00F1F434346C0006F
:1020F000384318431A4B3140D87108203040431EF2
:102100009841102333405F1EBB41202737407D1E7E
:10211000AF4165464E1EB1412E7915008001354014
:1021200028435B0103433F011F43C900E40F0C4BED
:10213000394364000C435C72B3081A405B461E408E
:10214000074B3243DA726346054A5B79537303B037
:102150003CBC90469946A246AB46F0BD50020020DA
:102160002002002010B5012000F000FC002807D15B
:1021700000F060FC83231B029C466044FEF71EFABD
:102180000A4800F04FFA0A4800F064FA5523094C57
:10219000012221000020237000F0E3F80122210039
:1021A000012000F0DEF800F0B9F810BD04030201D0
:1021B000080706051C020020F0B5DE4657464E46CD
:1021C0004546E0B583B0FFF7CDFFFFF7EFFDFFF722
:1021D0006BFC0020FFF78AFC2A4B2B4C9A6969465E
:1021E00000926A469B8B2000938020231380274A0D
:1021F000FFF758FB01237D2200212000FFF78CFB15
:102200002000FFF77DFB224B224D9846224B234FA7
:102210009B46234B234E9A46002399460F3543464F
:102220001B78002B1AD13B78002B22D13000FEF70F
:1022300085FD0028F3D13378732BF0D1154BE022C4
:102240001C009A732078FEF799FD0028FAD101341A
:10225000AC42F7D143461B78002BE4D043464A46B4
:102260001A705B464A461A60FFF7C6FD3B78002BA2
:10227000DCD04B464A463B7053461A60FFF786FE59
:10228000D4E7C0462852000048520000251D000037
:10229000740200202002002070020020750200203D
:1022A00078020020C003002082B002B07047C04610
:1022B00082B002B07047C0467047C046202310B5B8
:1022C00084B0041E019103930DD0012814D0200086
:1022D00000F01CF955230C49012220000B7000F07E
:1022E00040F804B010BD0122084B09491A700020C3
:1022F00003AA00F077F8EAE7064B03AA187006492C
:10230000012000F06FF8E2E71C02002074020020B8
:1023100030020020750200205002002008B5064B54
:102320001868002803D10222044B1A7002E001F061
:10233000CDF8012008BDC04680030020C103002065
:10234000014B1B68587E70478003002008B500F0E1
:1023500009FE002802D100F0F0FD01E0FFF7ACFF1C
:1023600008BDF8B5171C051C0C1C0422072805D84D
:10237000032200292DD0202F04D90622174B002438
:102380001A7028E000F044FE09220228F6D8281C22
:1023900000F042FE0A220228F0D800F041FE082296
:1023A0000128EBD900F0ECFD0122061C4378211C2A
:1023B0001343437007703A1C023002F0D3FEE8B2B8
:1023C000311C00F0F1FD041E05D1054802F0B6FAFB
:1023D0000F22024B1A70201CF8BDC046C10300201A
:1023E000DD00050070B5041C0D1C161C00F014FE69
:1023F000002803D10B22154B1A7025E00322002D73
:1024000007D0201C00F0F6FD326803789A4204D20F
:1024100006220E4B00201A7016E0201C00F0E0FD92
:10242000041E0AD00278811C3260281C02F09AFE39
:10243000201C00F0AFFD012006E0054802F07EFA06
:102440000F22201C014B1A7070BDC046C103002032
:102450000501050008B5072804D90422034B002014
:102460001A7001E000F0D4FD08BDC046C103002091
:1024700008B5072805D904220120034B40421A70F1
:1024800001E000F0C9FD08BDC103002008B500F05F
:10249000C7FD0623181A08BD10B5072803D9042262
:1024A0000B4B1A7004E0041CFFF7D4FF022801DD77
:1024B00000200CE0201CFFF7DBFF0228F8DCFFF710
:1024C000E5FF0623181A053B83428041404210BDB8
:1024D000C103002008B50B4B1B685B7E002B04D0AA
:1024E0000C22094B1A70002309E0072803D90421A4
:1024F000054A117003E0C0B200F096FD0123181CDC
:1025000008BDC04680030020C103002008B507288D
:1025100004D90422044B00201A7003E0C0B200F07A
:102520009DFD012008BDC046C103002010B5012853
:102530000AD0002803D0022808D1002000E00120A2
:1025400001F04EF8012005E00220F9E70522002005
:10255000014B1A7010BDC046C103002008B500F041
:1025600009FD0023012809D00233002806D0013BD1
:10257000022803D0024802F0E1F90223181C08BD2A
:102580007001050038B5124B1B685B7E002B04D030
:102590000222104B1A70002317E04A1E0F2A01D99D
:1025A000072102E0002803D103210A4A11700CE040
:1025B0000C1C094D011C10C5221C281C02F0D2FD68
:1025C000281C211C00F0BAFD0123181C38BDC04690
:1025D00080030020C1030020700000200C4B10B5C8
:1025E0001A680C68944201D3102C04D90722094BB5
:1025F00000201A700AE0002803D10322054B1A704C
:1026000004E00A60191D02F0ADFD012010BDC046B6
:1026100070000020C1030020014B18687047C046BD
:102620007000002008B5074B1B685B7E002B04D0B0
:102630000222054B00201A7002E000F019FD012073
:1026400008BDC04680030020C103002008B500F08B
:102650001FFD08BD08B5074B1B685B7E002B04D02F
:102660000222054B00201A7002E000F017FD012045
:1026700008BDC04680030020C103002008B500F05B
:102680001BFD08BD08B50A4B1B685B7E002B04D000
:102690000222084B1A70002308E0072803D90421FE
:1026A000044A117002E000F00DFD0123181C08BD62
:1026B00080030020C103002010B5072804D904229C
:1026C000064B00201A7007E003220029F8D00C1CEA
:1026D00000F024FD2070012010BDC046C103002081
:1026E00008B5074B1B685B7E002B04D00222054B0C
:1026F00000201A7002E000F061FD012008BDC04614
:1027000080030020C103002008B500F05DFD08BD76
:1027100008B50E4A031C1268507E002804D002221D
:102720000B4B00201A700FE0012B0AD0002B05D0B4
:10273000022B05D00E22064B1A7005E0022000E0A5
:10274000012000F0D5FD012008BDC0468003002017
:10275000C103002008B501F017F8031C0120002B6D
:1027600003D0013B58425841400008BD08B5144B06
:102770001B685B7E002B04D00222124B1A700023D0
:102780001BE006280FD802F057FC12041406080AB2
:102790000C0000200EE0F8200CE0F4200AE0F0200D
:1027A00008E0EC2006E00E21064A117005E0042046
:1027B00000E0FC2000F042FD0123181C08BDC046CB
:1027C00080030020C103002008B500F045FD05236B
:1027D000F02811D006D8002304280DD00633EC28A9
:1027E0000AD008E00323F82806D0013BFC2803D0D8
:1027F0000233F42800D00123181C08BD08B5074B8C
:102800001B685B7E002B04D00222054B00201A704F
:1028100002E000F0DFFC012008BDC046800300207C
:10282000C103002008B500F0DBFC08BD08B5074B6C
:102830001B685B7E002B04D00222054B00201A701F
:1028400002E000F095FC012008BDC0468003002096
:10285000C103002008B500F091FC08BD08B5074B86
:102860001B685B7E002B04D00222054B00201A70EF
:1028700002E000F0C9FC012008BDC0468003002032
:10288000C103002008B500F0C7FC08BD08B5074B20
:102890001B685B7E002B04D00222054B00201A70BF
:1028A00002E000F0A3FC012008BDC0468003002028
:1028B000C103002008B500F0A1FC08BD08B5074B16
:1028C0001B685B7E002B04D00222054B00201A708F
:1028D00002E000F0A7FC012008BDC04680030020F4
:1028E000C103002008B500F0A3FC08BD08B50B4BE0
:1028F0001B685B7E002B04D00222094B1A70002358
:102900000AE0002805D0012803D00E21044A1170E6
:1029100002E000F051FF0123181C08BD80030020D5
:10292000C103002008B500F04DFF01384342584173
:1029300008BD08B50B4B1B685B7E002B04D0022240
:10294000094B1A7000230AE0002805D0012803D0A3
:102950000E21054A117002E000F046FF0123181C09
:1029600008BDC04680030020C1030020F8B51D4CFF
:102970000026071C201C1C4D311C0C2208302E7018
:102980006660FDF789FC194800F042FE2060B04205
:1029900003D1012300202B7023E0154B181D19686B
:1029A000FFF7F0FD041C381CFFF7C0FD2040C4B247
:1029B000042000F0E9FB301CFFF798FF04400120E1
:1029C000FFF7D4FE04400220FFF7A2FE0440301CB3
:1029D000FFF7AFFF0440012000F0DCFE002CD8D050
:1029E0000120F8BD80030020C1030020672A0000F9
:1029F0007000002008B500F0FDFE01384342584148
:102A000008BD0022014BDA607047C04680030020F9
:102A1000014BD8687047C046800300200022044B59
:102A20001A72904202D0013218611A727047C04681
:102A300080030020014B18787047C046C103002076
:102A40000022014B1A707047C1030020014B5868E7
:102A50007047C046800300200022014B5A60704737
:102A6000800300207047F0B58BB00D1C0491111C41
:102A7000090C0191002108AC030C060A171C0891EF
:102A8000039005926160020E0791011C6846C172B5
:102A9000C07ADBB2BFB2F6B26946052853D802F05D
:102AA000CBFA031328423F3C22705BB28A885B4218
:102AB000281CA2806780E38000F06CFA301C089923
:102AC0006268FFF7F1FB41E0214B1B685B7E002B46
:102AD00002D1204801F032FF281C00F05BFA6B465F
:102AE0009B886780A380301C08996268FFF7E0FB31
:102AF0002CE05BB207A95B420A704B80002A07D02A
:102B0000002D02D1144801F019FF281C00F042FAF0
:102B1000301C0799FFF7D2FB18E0FFF7CDFB15E05B
:102B2000FFF7A0FF12E00A4BDA680132DA601A7A86
:102B3000002A0BD01A69002A02D1FFF707FC05E032
:102B4000013A1A6102E0054801F0F8FE0BB0F0BD51
:102B500080030020B5030500C3030500E30305005F
:102B60000F22024B1A70024B58607047C1030020BD
:102B700080030020044B01201A78022A02D05868F2
:102B8000431E98417047C046C403002008B5FFF7B4
:102B9000F1FF044B044A002801D0D26800E092689B
:102BA0001A6008BD98030020FC030020044A08B501
:102BB0005368002B01D0013B5360FFF7E7FF08BDCE
:102BC000C403002000231A1C10B5041C01211C4161
:102BD00021400724E41AA14001330A43D2B2082B52
:102BE000F3D1101C10BD70B50024061C251C301C30
:102BF000E040C0B2FFF7E6FF18231B1B98400834E3
:102C00000543202CF3D1281C70BD38B50D1C01F0F4
:102C100065FE084C63699D4202D8074801F08EFEAC
:102C200063690648E91A012202F04AF90023636148
:102C300038BDC046C40300204D0609001D490000F0
:102C400007B5A123C0210F4A8900DB00D15001F054
:102C500085FD002815D002280AD9032811D10023A8
:102C600000930193181C191C1A1C01F0D3FC03E0FB
:102C70000020011C01F082FC042802D0024801F06F
:102C80005DFE07BD00F00140E801090008B501F054
:102C900017FFA1230E4ADB00D05001F05FFD012891
:102CA00007D001F05BFD022802D00A4801F046FE81
:102CB000002001F099FA02F087F9AA22064BD2000F
:102CC0009850064AD2685168054A995008BDC046D6
:102CD000001000401E06090000F00140980300208B
:102CE0005405000008B502F0DFF801280FD002F00B
:102CF000BFF8074B1B7F002B03D180230122DB058C
:102D00005A60002001F0EAFD0022024B5A6008BD23
:102D1000FC030020C403002008B502F0C5F8012818
:102D200022D101F0F5FD002802D0104801F006FE86
:102D300064210F48002202F0C3F80E4B197F0029CE
:102D400002D002F089F80FE001220B4B1A600B4B06
:102D500059608021C9050A60C046C046C046C046C9
:102D60005A68002AFCD0ECE708BDC0462C060900D2
:102D70001D490000FC03002014050040FC00004039
:102D800010B501F028FD00281BD000220D4B0E4C81
:102D90009A81DA8101F07AFB0C4BE05001F076FB6E
:102DA00001238340181CA623DB00E05001F074FBD4
:102DB000074C206001F076FB064B6060E360FFF794
:102DC00065FF10BDC4030020001000402C0500006A
:102DD000E00300201D2E000030B50E4D85B06B7E47
:102DE000002B15D00024FFF77DFF01F0B5F8052377
:102DF00001A80370AC706C76446004814481447017
:102E00008470C47001F082FA034B1C70FFF718FF46
:102E100005B030BDC4030020F80300208022F0B5C7
:102E20003C4BD2009A5887B0012A04D000263A4A77
:102E30009B58B34206D100262022384B5B681B7892
:102E40009A427641364C6369002B05D102F032F884
:102E5000002801D10123636101F080FC012802D028
:102E6000304801F06BFD304DEB681B7D002B02D02C
:102E70002E4801F063FD01F06FF8002E47D00120CD
:102E8000011C01F07BFB042836D802F0D5F8033290
:102E90001832320001F000FBE389A689071C019378
:102EA00001F0F4FAEB686D460022997DAD8803AB22
:102EB0001A7004971E815D815870997014E001F0BA
:102EC000EBFAE389A689071C019301F0DFFA0021E0
:102ED000EB689A7D03AB197069469A700122898864
:102EE00004971E8159815870DA70181C01F00EFA8F
:102EF00002E00F4801F022FD01F008FE0D4B2061B9
:102F00005B696360FFF742FE002001F005FE07B039
:102F1000F0BDC0460010004034050000E003002072
:102F2000C4030020A806090098030020A906090090
:102F3000C8060900FC030020704708B5012282F38F
:102F40001088074B597E002905D09978002902D1B5
:102F50009A70FFF7E1FE002383F3108808BDC04696
:102F6000C40300200120024B5B7E58407047C046DE
:102F7000C4030020014B18787047C046C4030020EA
:102F800008B5012383F3108801F086FC002383F346
:102F9000108808BD08B5012383F3108801F080FC78
:102FA000002383F3108808BD10B5012383F3108834
:102FB00001F0DAFB041E0CD0084B9A78002A04D1E9
:102FC0005B7E002B01D0FFF7A7FE002383F3108860
:102FD00001E080F31088201C10BDC046C40300200F
:102FE00008B5012383F3108801F0E6FB002383F387
:102FF000108808BD08B501F0DAFB08BD08B501234B
:1030000083F3108801F0C3FB002383F3108808BD0D
:1030100008B501F0C8FB08BD08B501F0D7FB08BD35
:1030200008B501F041FC08BD10B50123041C83F371
:103030001088084B1A78002A05D05B7E002B02D03E
:10304000054801F07BFC201C01F0A5FB002383F365
:10305000108810BDC4030020FB02090008B501233D
:1030600083F3108801F0ADFB002383F3108808BDC3
:1030700008B5044B1862FFF7B6FD034B034AD05066
:1030800008BDC046FC0300201C05000000100040E5
:10309000014B186A7047C046FC03002008B5044B7A
:1030A0005862FFF7A0FDA423024ADB00D05008BD00
:1030B000FC03002000100040014B586A7047C046D6
:1030C000FC03002070B507281CD8104B03251B18E3
:1030D00028331970FF230540ED00AB400C4CDB4357
:1030E000032801D80B4E01E0A526F600A259081CC2
:1030F0001340A351FFF766FDA840051CA3591D43CB
:10310000A55102E0044801F019FC70BDFC03002049
:1031100000100040240500003903090010B5041E0A
:10312000072C02D9034801F009FC034B1C19283471
:10313000207810BD41030900FC03002038B5051CB0
:103140000C1E02D1074801F0F9FB002D02D1064800
:1031500001F0F4FB054B00209D605C6001F0C4FCB5
:1031600038BDC04648030900490309009803002000
:10317000014B58617047C046FC030020014B586961
:103180007047C046FC030020A322064B064910B539
:10319000D20058778C58054B0004234018438850C0
:1031A00010BDC046FC03002000100040FFFFF8FFE8
:1031B000014B587F7047C046FC030020014B18614B
:1031C0007047C046FC030020014B18697047C04699
:1031D000FC030020014B58607047C046FC030020F0
:1031E000014B58687047C046FC03002008B5024BED
:1031F000D860FFF7CBFC08BDFC030020014BD8686A
:103200007047C046FC03002008B5024B9860FFF7EA
:10321000BDFC08BDFC030020014B98687047C04608
:10322000FC030020014B58837047C046FC0300207C
:10323000014B588B7047C046FC030020034B044AE7
:1032400030331870034BD0507047C046FC03002049
:10325000001000400C050000014B30331878704717
:10326000FC03002010B5FF24164B174A31331870A9
:10327000164B9958A143995003281FD8995801F02B
:10328000DBFE1B020B13012001439950FF21104A62
:1032900099500821FF310EE00220014399500D4959
:1032A0000B4A99500C4906E00320014399500B4901
:1032B000074A99500021043A995002E0084801F069
:1032C0003DFB10BDFC030020340500000010004051
:1032D0003C050000FFFF000021100100FFFFFF0080
:1032E000C2030900014B313318787047FC030020FA
:1032F0001F4B32331870012821D0002810D002282B
:1033000034D1A2231B4ADB00D0501B4A1B4B1A604E
:103310001B4A1C4B1A601C4A1C4B1A601C4A20E0BA
:10332000A223144ADB00D050134A144B1A60144AEB
:10333000144B1A60174A154B1A60174A11E0A22362
:103340000C4ADB00D0500C4A0C4B1A600C4A0D4B57
:103350001A60124A0D4B1A60114A124B1A60124A37
:1033600002E0104B1A60114A114B1A607047C046B8
:10337000FC0300200010004000500078241700409B
:103380004E0000542817004008800C602C170040A5
:103390008864720003800C602264720002800C60FA
:1033A0001164660030170040DEC08F823E420F82FB
:1033B00034170040F8B50026C0270122324D334BA8
:1033C000BF00EE504C3BEF50314C324BE650E250D8
:1033D000314B324AE1580A400F21E250E2588A4309
:1033E00009390A43E250E1582D4A0A40C0218902B6
:1033F0000A43E2500433E1582A4A0A408021E2504D
:10340000E25849040A43FF21E250E2588A43DF3977
:103410000A43E250E158244A0A40E250C023022104
:10342000224A5B00D15001F0CBFD214B214AE850EC
:10343000043BEA50204B2148EF5000F0C5FD204BE3
:10344000204DD860687FFFF79FFE286AFFF710FEC7
:10345000686AFFF723FE331C2833301CE95C013611
:10346000FFF730FE082EF6D12B1C30331A78164B9E
:10347000E2502B1C313318783235FFF7F3FE2878F1
:10348000FFF736FFF8BDC04600F0014054050000CC
:1034900000100040FC0F000014050000FFFEFFFFBD
:1034A000FFFFF0FFFFFFFFFDFF00FFFF00E100E077
:1034B0005C0500000411004004050000E00300204A
:1034C00098030020FC0300200C05000038B5124BC7
:1034D0005A7E1D1C002A1DD1FFF76CFF0F4B9A6806
:1034E0001C1C002A02D10E4801F028FA6368002B48
:1034F00002D10C4801F022FA01F0FEF9002802D0B6
:10350000094801F01BFA002001F0E8F901236B766D
:10351000FFF702FC38BDC046C4030020980300201A
:103520005E0209005F0209006602090070B5274DBE
:1035300086B02B786A7800209A4244D0834201D129
:10354000FFF738FF6B78002B01D1FFF779FB0024E0
:103550001F4B204AD45000F0FFFC1F4E2B783460E4
:1035600074603461B460F460012B08D101F0F6F8A6
:10357000A04217D0201C211C01F000F812E0022B01
:1035800010D100F0E9FC154B34611C7001F0E6F835
:10359000032807D100940194201C211C221C231C09
:1035A00001F038F8FFF7F2FA6B7803A82B700423C8
:1035B0000370002343600381438143708370C370B1
:1035C00000F0A4FE012006B070BDC046C403002078
:1035D0005405000000F00140E0030020F803002043
:1035E00008B5012383F31088084B1A78824208D06B
:1035F00058705B7E002B02D1FFF798FF01E0FFF7C8
:103600008BFB002383F3108808BDC046C403002051
:10361000F7B50127019087F3108803230026514C4A
:10362000514D2370514BAE601E605E609E60DE6047
:103630001E611E756E60A6706660A660A681E6813A
:103640002661666126766676677001F0C9FB01988F
:1036500000F042FE00F0DEFE301C01F037F9281CBD
:1036600001F070F9C222FF21414B92009B58404863
:103670008B433F498B50C0213D4B89005A583D4BED
:103680001A404250C522920081580B408021C90146
:103690000B438350381CFFF7A3FFFF23364D032055
:1036A0002B61364B291C2B62354B29316B622B1C4D
:1036B00028331F7002230B70291C2A310870291C23
:1036C00004222B310A706A772A1C05212C321170D2
:1036D0002A1CC9192D3211702A1CC9192E321170D9
:1036E0002A1CC9192F3211702A1C303216702A1C5C
:1036F000313213702A1C323217701E226A619622F0
:1037000092006A60EB60FFF741FA0F23AB60FFF7AE
:103710003DFA301C6E832E772F766F7601F0C8F855
:1037200069232B606378124EBB4202D0154801F02A
:1037300005F900252770A5706560A560A581E58164
:103740002561656125766576FFF734FEC02380220A
:103750005B005200F25080229203F25085F31088F1
:10376000201CFEBDC403002098030020E0030020BD
:1037700000E100E0FF00FFFFFC03002004070A0D4A
:1037800005080B0E3C020900014B323318787047D4
:10379000FC030020054B10B5DB68041C002B02D194
:1037A000034801F0CBF8034B1C7510BD98030020B3
:1037B000F6030900E0030020014B18767047C0466D
:1037C000FC030020014B187E7047C046FC0300201C
:1037D000014B58767047C046FC030020014B587ED1
:1037E0007047C046FC030020014B18777047C04665
:1037F000FC030020014B187F7047C046FC030020EB
:1038000008B501F055F808BD08B50B4BDB685B7DCA
:10381000002B06D0012000F03FFB084A93890133BA
:1038200093810020064B074AD050074A0ACA591A0A
:10383000FFF7EBF908BDC04698030020C403002041
:103840005405000000F00140FC030020084B10B5B7
:103850001A781C1C012A02D0064801F06FF80223D6
:1038600000222370044B1A61044ADA6010BDC0467E
:10387000F803002092050900E0030020713B0000DE
:1038800010B500F069FB00230122184C2361184B8E
:103890001A70184B184A1969A623DB00D15000F0A2
:1038A0005DFF00280AD100F063FD01280DD900F06A
:1038B000FFFD6060002808D1104804E000F04EFFD2
:1038C000032802D00E4801F039F8022000F08CFCE9
:1038D000002000F0E1FA00F041FF032802D009487F
:1038E00001F02CF8FFF7B2FF10BDC046E003002046
:1038F000F8030020FC030020001000407B050900B5
:10390000800509008805090070B5A1240B4DE4006D
:103910002E5901F0D5F886420AD001F0D1F828518D
:10392000FFF7AEFF064B00205968FFF76EF970BD38
:10393000044B1B78002BF3D0F4E7C0460010004086
:10394000FC030020F8030020F0B5804C89B06369C7
:10395000002B00D0D1E001F0ADFA002800D0CCE07F
:103960002378012B02D100F0EDFA12E0022B08D0EF
:1039700000F0F8FFFFF71AF9A678002E00D0A5E0B6
:103980000BE00122724B1B78033BDBB29A424041B1
:10399000C0B2002800D0C2E0EAE7FFF7C7FD6D4DD6
:1039A000071E00D08DE02678012E06D0002E63D0B1
:1039B000022E66D1FFF7A8FF66E000F0CDFA00F016
:1039C000CDFE00281DD100F0D3FC012851D9FFF70E
:1039D000D1F8061E0CD001F0B1F8002849D12B7E99
:1039E000002B0BD101F092F82369984241D105E0F8
:1039F000206901F079F8301C01F08EF8FFF7C0F96A
:103A000037E06B8B002B20D0A2899A421DD3311C4A
:103A1000381C00F0B3FD00F03FFD0190A389029334
:103A2000E389039300F032FD019A05AB06926A46E2
:103A3000128958701A816A469289181C1E705A8120
:103A40009F70DF7000F062FC13E001F033FA002891
:103A500002D0414800F072FFA123404ADB00D65853
:103A600001F02EF8864202D0E3890133E381FFF7AB
:103A70000DF90120296801E0301C6968FFF7C5F8DD
:103A800002E0374800F05AFF6B7E012B20D1FFF790
:103A900071F800281CD12378012B07D0002B0DD002
:103AA000022B15D02F4800F049FF11E000F056FE20
:103AB00000280DD100F0E4FC002809D1FFF712F92D
:103AC00006E0301C6968FFF7A0F801E0FFF784F911
:103AD00000F04EFC01280CD9032305A80370002335
:103AE00043600381438143708370C37000F00EFC18
:103AF0002AE01D4800F022FF26E0FFF757F8A578DE
:103B0000002D1DD12378022B12D1114B1B78033BC2
:103B1000012B04D900F026FFFFF7F6FE14E00D4B51
:103B20001248596801224908616101F0C9F90BE0A6
:103B300000F018FF074B281C5968FFF766F803E0F0
:103B400000F010FFFFF748F909B0F0BDC4030020F2
:103B5000F8030020FC0300200A05090000100040C3
:103B600058040900720409008C0409001D49000072
:103B7000802370B5454ADB00D35886B0444C012BF6
:103B800004D0444BD1580023994205D163682020CA
:103B90001978002388425B4103213F4D29700021A1
:103BA00021608B4254D081230120DB00D658D158AC
:103BB0003A4BD1503A4B311CD25802AB009301948E
:103BC000031C00F027FD032840D801F035FA1D0240
:103BD0001F4D029B002B02D0324800F0AFFE301C7C
:103BE00000F0F4FD002802D12F4800F0A7FE2F4B73
:103BF00003A8DB689A7D02230370002346704360AC
:103C00000381438182701DE029482BE0029B002B39
:103C100002D1284800F092FE301C00F0D7FD0028A9
:103C200002D1254800F08AFE204B03A8DB689A7D6C
:103C300002230370029B467043600023827003815D
:103C400043810133C37000F061FB0DE01B4809E0C4
:103C500000930193181C191C1A1C00F0DBFC0428AB
:103C600002D0174800F06AFE2668002E06D100F048
:103C700073F966752661FFF703FE05E0012363759E
:103C8000104B236104232B7006B070BD0010004060
:103C9000E003002034050000F80300202C0500009C
:103CA0000C040000B8050900B905090098030020BC
:103CB000BD050900C0050900C1050900C8050900C6
:103CC000CF050900C93C0000052208B5024B1A7057
:103CD000FFF7D6FD08BDC046F80300200138C046F6
:103CE000C046C046C046C046C046C046C046C046A4
:103CF000C046C046C046F1D170478023002170B550
:103D0000C224154A9B00D150144BA4001E78144DB8
:103D1000032E06D109391151C121082489005450BC
:103D20000BE0012676421651C0220E4C520003369B
:103D3000A6507E3AFF3A29615A7000226A606A6191
:103D4000AA605A601A75904205D0074B1B681B6920
:103D5000934200D0984770BD00100040300400200E
:103D6000FC10004000E100E0A8030020F8B53D4B46
:103D70001A69012A54D103321A709A690321013257
:103D80009A6180220220384D9200A9503749803A2A
:103D900088500021364A374E11615160516191605F
:103DA000C1210630890068503168141C097D002942
:103DB00016D0A922D200AA589A75A0222E4BD20062
:103DC0009A581F1C530502D42C4800F0B7FD00235D
:103DD00023620133AB618022A123D200DB00FA50C1
:103DE0006368002B02D0264800F0A8FD2369002B51
:103DF00002D0244800F0A2FD234B5B689B0702D54C
:103E0000224800F09BFD3368DB68002B00D0984708
:103E100033685A7D002A23D01A681D4BEA501FE0F0
:103E2000022A1AD10022124901240A614A614A6019
:103E30008A6080210C48890042500931FF31644278
:103E40001A70445003215A6059701A75094B1B6847
:103E50001B69934204D0984702E00E4800F06EFDC3
:103E6000F8BDC046300400200010004000E100E032
:103E7000FC100040A803002000F00140AD020A0041
:103E8000B6020A00B7020A00FCE100E0B8020A002C
:103E900004050000E7020A0070B51F4C061C637D94
:103EA0006578002B02D11D4800F048FD237D002BD2
:103EB00002D01B4800F042FD0123002223756275E9
:103EC000022D0ED8964203D1164A29018A58136052
:103ED0006B1E012B08D8134A2B01D3189B7A237031
:103EE00002E0114800F02AFD104B1B681B7D002BDF
:103EF00011D0022D0FD10E4B0E4A1C1CD258530567
:103F000002D40D4800F01AFD0C4B1B59002B02D1B6
:103F10000B4800F013FD70BD3004002021010A00A1
:103F200022010A00505200003A010A00A8030020B2
:103F30000405000000F0014040010A0000100040AC
:103F400041010A00034B9868013843425841C0B20E
:103F50007047C046FC10004002200121C222F8B583
:103F6000144B4942D867144B92009950134D893A2B
:103F7000FF3A8021A8500022114F89005A50114C5D
:103F80007A6101321A619A612378934201D1043037
:103F900003E0023B012B00D9101C0026FFF79EFE18
:103FA0007E61301C2670FFF7A8FE022366752B6029
:103FB000F8BDC04604E100E00010004000E100E070
:103FC000FC1000403004002038B502250C4B0D4C8D
:103FD0001860231DDD670C490C4B0D4A99500D49A3
:103FE000043A9950FFF7B8FF002303220A480370F0
:103FF000427043600361037543758375256038BD66
:10400000A803002000E100E01410004000F001408F
:1040100064050000041100403004002070B55C4CC1
:104020002369667801332361637D002B02D05948F0
:1040300000F084FC2378032B48D1574D2B69002BCB
:1040400044D0012E35D12369032B02D0534800F010
:1040500075FCA36980200133A3610221002301269E
:104060004F4A80002170135009307642FF301650BD
:1040700089384C4EFF38315001312B616B606B61D8
:10408000AB6061704849636009682375087D984298
:104090000DD0A920C0001058A0753F48036201331D
:1040A00093618020A123414AC000DB00D050CB683F
:1040B00065E0022E08D12369012B02D03C4800F0B4
:1040C0003DFCFFF753FE61E03A485DE0032E5AD015
:1040D000012E3AD12369012B17D100212E4A304BF2
:1040E00051609160C222013992009950043A9E5069
:1040F0002D4A1268117D304A002903D080202B49B7
:10410000C0008850E168995040E0022B3ED1002366
:10411000214902200B614B614B608021204A8900BC
:10412000535009314042FF3150500A300439505049
:104130000322636023751C4B22701A681C1C1269D1
:10414000002A00D09047236818E0022EB9D000253D
:1041500063781A4A1B01D118097BA94204D00E4981
:104160000D69691E8D41EDB2D3189B7A0120237031
:10417000FFF7C3FD002D09D00B4B1B689B68002B7C
:1041800004D0984702E00E4800F0D8FB70BDC0464E
:104190003004002090010A00FC1000409F010A003A
:1041A0000010004000E100E0A803002000F0014002
:1041B000A4010A00A9010A000405000050520000F1
:1041C000D6010A0008B5022805D8054B18784342E5
:1041D0005841C0B203E0034800F0B0FB002008BD26
:1041E00030040020F9020A00F0B52F4C85B0237D81
:1041F000061C002B02D02D4800F0A0FB301CFFF75E
:10420000E1FF002802D12A4800F098FB0121C222D8
:1042100000230220274D494292006375A950264988
:10422000893AFF3A8850254837010268667011685C
:1042300052682361A361224B0192E260FA58A160A7
:10424000626003900293022E1CD88020DB191A7A38
:1042500080002A50D87A1B4B002805D1E950EB5832
:10426000002B09D1184805E0019AEA50EB58002BC1
:1042700002D1164800F062FB029BDF19C1237A7A53
:104280009B00EA50039B1B681B7D002B08D0022E6D
:1042900006D100238021A3750D4A0A4BC900D150D5
:1042A0000123637505B0F0BD30040020DB000A0077
:1042B000DD000A000010004000E100E0A80300203B
:1042C000505200000405000000010A0005010A0028
:1042D00000F001407047C04610B5041E02D10848E6
:1042E00000F02CFB0022074B1C60191DDA67083315
:1042F000CA67DA678022044B92031A6010BDC04679
:1043000029000B005404002000E100E038B5144CF3
:10431000051C2368002B02D1124800F00FFB231C60
:104320000833DB6F092B02D90F4800F007FB0C2381
:10433000E26F5343E318043307CD07C3221C08324E
:10434000D36F0133D367E36F0133E367E36F092B67
:1043500001D90023E3678022044B92035A6038BDE1
:104360005404002034000B0035000B00FCE100E099
:10437000034B0833D86F0A23181AC0B27047C046DF
:1043800054040020F0B585B0012383F31088144B4A
:104390001D1C0835EA6F9C461E1C002A1BD00C22EF
:1043A000191DCB6F01AC5343221CF3180433C1CB4E
:1043B000C1C2EB6F013BEB67CB6F0133CB67CA6FB9
:1043C0000023092A00D9CB6783F31088634607CC02
:1043D0001B689847D8E782F3108805B0F0BDC04647
:1043E0005404002038B5094C051CE36F002B02D1A2
:1043F000074800F0A3FA291CE06F083100F03EFCEA
:10440000002801D00023E36738BDC046DC0400204B
:104410006F020C0038B500F0BDFB00211248134AB2
:1044200000238C18251C88348035036003622B70B0
:1044300023700F4C04300C19013123700829EED180
:10444000111C90310B70111C91310B70111C5831E3
:10445000137053609360D36013615361D3670B7023
:1044600092320133137038BDF4040020DC040020C4
:1044700070050020014B185C7047C0467005002095
:10448000014B903318787047DC040020014B5868CA
:104490007047C046DC040020014B98687047C04656
:1044A000DC040020014BD8687047C046DC040020C3
:1044B00010B5104C2378002B02D00F4800F03EFAC4
:1044C000E36F002B02D100F08DFBE067E06F002866
:1044D0000FD0FF230622037043781343021C43705E
:1044E0002232831CFF21197001339342FAD1032336
:1044F000237010BDDC0400203B010C0038B5124CC9
:104500002378002B1ED1231C90331B78002B19D14C
:104510000825606900F02EFC002805D0231C01222C
:1045200090331A706369236163690133082B00D1EA
:1045300000236361231C90331B78002B02D1013DC3
:10454000002DE6D138BDC046DC04002038B5094C4A
:10455000051C231C90331B78002B04D02369834255
:1045600001D1FFF7CBFF00236419034A8034535570
:10457000237038BDDC04002070050020F8B51F4C06
:10458000071C23780E1C013B012B02D91C4800F0AC
:10459000D5F90425002F19D02378012B02D0194812
:1045A00000F0CCF9E368002B02D1174800F0C6F9FF
:1045B0000025E3681B78AB4208D06068FFF712FF64
:1045C0000235002802D1114800F0B8F9002E0ED0B3
:1045D0006768381C00F088FB061E02D0381CFFF705
:1045E000B5FFA3689E4202D0094800F0A7F9002356
:1045F0002370FFF783FF281CF8BDC046DC040020B1
:10460000FC000C0002010C0003010C000E010C0068
:104610001E010C00F0B54A4C85B00393E36F071CF4
:104620000E1C0192002B02D1464800F087F9237836
:10463000032B02D0444800F081F90125E36F5B7839
:104640002B4202D19234227855400424002F4CD0C2
:10465000019A5B0717029B0F1B063F0A1F43331C7F
:10466000374A0E339B00D2580023341C0A99083471
:104670000B600B990B60974204D101221540019504
:1046800002930BE0301CFFF7ADFE0290002D00D02E
:10469000051C012215400195002801D103240CE0DE
:1046A000A31D27499B005F50039B141C002B04D0C3
:1046B000264D141CAB5D002B1ED1019B002B0ED090
:1046C000301C00F03BFB0B9B1860002803D1204BF3
:1046D0000B9A136006E001221C4B9A5502E00B9BDB
:1046E000019A1A60029B002B21D1154DE86F00F052
:1046F00097FA0023EB671AE0301C00F03BFB002820
:1047000002D1144800F01AF9301C00F0EDFA041E32
:1047100002D0301CFFF71AFF0A9B1C60002C02D14C
:104720000D4800F00BF900230224AB55C5E7002229
:10473000034B1A70FFF7E2FE201C05B0F0BDC04627
:10474000DC0400205B010C005C010C007005002003
:104750003405002091010C0096010C00014B1878E3
:104760007047C046DC04002038B5041C0D1C00F066
:1047700013FB002801D1002008E0281C211C00F0B8
:104780007DFA0028F7D0FFF7B9FE012038BD08B543
:1047900000F0D4FA08BD10B5041CFFF7D7FE201CAA
:1047A00000F000FB10BD08B500F0E4FA08BD08B544
:1047B000083000F0C3FA08BD08B5083000F094FADC
:1047C00008BD08B5083000F0EDFA08BD08B508309E
:1047D00000F0D0FA08BD10B52B4C2378002B02D086
:1047E0002A4800F0ABF8231C90331B78002B28D00C
:1047F0002369181C636000F0A1FAA060002802D1B0
:10480000234800F09BF8A3685A780123134004D191
:10481000221C92321278002A10D16068FFF7D6FF6E
:1048200002280ED8E36F002B02D100F0DBF9E0671D
:10483000E36FE360002B04D0012301E0E360022377
:1048400023700020237883421CD0A368834202D1C6
:10485000104800F073F823690321636006339B005E
:10486000E318DA78A0680132D2B2DA70131C0B4078
:104870005A00437849188B431343437000230120A7
:104880009034237010BDC046DC040020C3000C002F
:10489000C9000C00E7000C0008B500F0A3F908BD42
:1048A00008B500F0BDF908BD08B500F075FA08BDFF
:1048B000014B923318707047DC040020014B923397
:1048C00018787047DC0400207047C046024B98708F
:1048D000587018707047C0467805002010B5041E47
:1048E000012C02D9024800F029F8024B5C7010BD7F
:1048F0002A000D0078050020014B18787047C0464B
:1049000078050020014B98787047C0467805002054
:10491000014B58787047C0467805002008B5054A15
:104920001378937053781370034A9B009B589847F1
:1049300008BDC046780500208400002008B5FEF7B9
:104940000FF908BD10B5041E02D10448FFF7F6FFA9
:104950000022034B1C605A609A6010BD2A000100BF
:10496000AC030020084B18689A68016801329A600D
:104970008A4208D300215A684068013299605A601F
:10498000824200D359607047AC030020F8B500287C
:104990002BD0164CA36801280FD1216801330A6877
:1049A000A360934221D30022636849680133A26067
:1049B00063608B4219D3626017E02668C7183568B8
:1049C000A760381C291C00F041FB6368C0186060B8
:1049D000381CA84201D3401BFBE763687268A060E3
:1049E000934201D39B1AFBE76360F8BDAC03002040
:1049F000024A136890681B68181A7047AC030020BD
:104A000070B50D4D041E2B685B689C4202D30B48A9
:104A1000FFF794FF6E680020B4420BD002D82B68D9
:104A20005B68E418F643FFF7E3FF2B6834191B6853
:104A30005C43201870BDC046AC0300206800010034
:104A400070B5041C0E1C884202D30B48FFF776FF9A
:104A50000A4D2B681B689E4202D90948FFF76EFF7A
:104A6000AA68A01AA24206D30020B24203D32B6840
:104A70001B68981A001970BD7D000100AC0300206E
:104A80007E00010038B5041C101C0D1CFFF7B8FF98
:104A9000002801D004190FE0201C291CFFF7D0FFCB
:104AA000041CFFF7A5FF844206D3044B1B685A6819
:104AB0001B68013A5343E418201C38BDAC030020A6
:104AC000074B10B51A68596852681C1C914202D3F2
:104AD0000448FFF733FF23689A686368D05C10BD11
:104AE000AC030020B200010038B5064B051C1A6863
:104AF0001C1C5268904202D30348FFF71FFF6560F9
:104B000038BDC046AC030020B9000100014B586815
:104B10007047C046AC03002038B5064B051C1A6828
:104B20001C1C1268904202D30348FFF707FFA560E0
:104B300038BDC046AC030020C5000100014B986899
:104B40007047C046AC0300200E4B10B51A68002316
:104B500093420BD20C499C006158884203D10B4808
:104B6000FFF7ECFE0AE00133DBB2F1E70023084A6D
:104B70009A18904204D02233CC2BF8D1002000E0C8
:104B8000012010BD7C05002080050020F6000300F8
:104B900088060020002210B50321002351430D4850
:104BA000013244186370A3700B54102AF4D10A49DF
:104BB0000A1C0A4C223A98002250DE201070013262
:104BC0008A42FAD122320133111C062BF0D1044A59
:104BD000136010BD98050020AA0600208005002063
:104BE0007C0500200A4A38B513681C1E0ED0013B14
:104BF000084998004458084D13604550201CFFF7A1
:104C0000A3FF002802D10548FFF798FE201C38BDFD
:104C10007C05002080050020ADDEADDE7D000300B8
:104C200070B5104C051C2368052B02D90E48FFF700
:104C300085FE281CFFF788FF002802D10B48FFF7EC
:104C40007DFE23680A4A9B0099580A4B161C99421C
:104C500002D00948FFF772FE23689A000133B5506D
:104C6000236070BD7C0500208500030086000300E2
:104C700080050020ADDEADDE8800030070B5051CA8
:104C80000C1E0F2C02D91448FFF758FE281CFFF702
:104C90005BFF002802D11148FFF750FE032161435A
:104CA0000F4B0020CA5C022A14D85A18567889196A
:104CB0000C4E89008D5151780131C9B25170517833
:104CC000022900D950700322012054431A5D013299
:104CD000D2B21A5570BDC0468F0003009000030089
:104CE00098050020C805002010B5041E0F2C02D91D
:104CF0000F48FFF723FE032161430E4BCA5CD2B27B
:104D0000101E14D05A18907809180B4889000858BA
:104D100091780131C9B291709178022901D90021AD
:104D20009170032254431A5D013AD2B21A5510BD54
:104D3000A600030098050020C805002010B5041E39
:104D40000F2C02D90848FFF7F9FD0320021C62432B
:104D5000064BD15CC9B2081E05D09B189B78D018B1
:104D6000034B8000C05810BDB70003009805002019
:104D7000C805002010B5041E0F2C02D90448FFF707
:104D8000DDFD03206043034BC05CC0B210BDC046D4
:104D9000C800030098050020014B18687047C04602
:104DA0007C05002038B5051E0F2D0CD90948FFF7EA
:104DB000C5FD08E0084B9C4202D10848FFF7BEFD44
:104DC000201CFFF72DFF281CFFF78EFF041EF1D1DA
:104DD00038BDC046D7000300ADDEADDEDB0003000A
:104DE000A12101220020154BC90010B55A60DA60DC
:104DF00058505A64124A1C1C9A58824202D01148D8
:104E0000FFF79CFD0122C22352429B00E250002387
:104E10000D4A04215364A2220120D200A1500B4A62
:104E20000B4913601371537108708022C021094B24
:104E3000520049005A501A6010BDC0460080004020
:104E40004405000035000400FC800040B803002049
:104E50005407002000E100E00122034B1A60002209
:104E6000024B1A707047C046008000405407002073
:104E7000012330B5C02080250021074A074C53602C
:104E8000D360074A6D0040001160117125505171C7
:104E9000044A137030BDC0460080004000E100E0CD
:104EA000B803002054070020014B18787047C04613
:104EB00054070020014B18797047C046B803002002
:104EC000F7B5C22300928022324C334E9B0052022F
:104ED0000191E2507379051C002B02D02F48FFF797
:104EE0002DFD002D02D12E48FFF728FD3368002B41
:104EF00002D02C48FFF722FD009B35602A4F012B82
:104F00000DD0002B03D0022B0DD1A92308E00123E3
:104F1000264A6364A5582364009B7B6407E0A823AA
:104F2000DB00E55803E02248FFF708FD0025A82034
:104F300001210022019BC000EB189BB271717A64C1
:104F4000235023580093194B6164E6587B6C171C5F
:104F5000934202D01748FFF7F1FC009BAB4205D308
:104F6000AE4201D39E420ED313480AE03B1C009A86
:104F700096427B41AE427F41DBB2FFB2BB4202D0E0
:104F80000E48FFF7DBFC8022C12352029B00E25057
:104F9000F7BDC04600800040B80300207300040045
:104FA0007500040076000400FC8000404405000009
:104FB000890004009B000400B0000400C900040044
:104FC00000487047488000400048704740810040DA
:104FD0008022C22370B50026114D9B005202EA5078
:104FE000104C114B5E642368B34202D10F48FFF7A7
:104FF000A5FC01230E4A2068667126606B64A958DF
:10500000043AAA580B4D1432A94203D8C0252D02E8
:10501000AA4202D8002391425B412371804770BDB0
:1050200000800040B8030020FC800040EC00040039
:1050300044050000FF3F000002B4714649084900E2
:10504000095C49008E4402BC7047C04600224308F8
:105050008B4274D303098B425FD3030A8B4244D340
:10506000030B8B4228D3030C8B420DD3FF22090282
:1050700012BA030C8B4202D31212090265D0030B41
:105080008B4219D300E0090AC30B8B4201D3CB0337
:10509000C01A5241830B8B4201D38B03C01A524179
:1050A000430B8B4201D34B03C01A5241030B8B427B
:1050B00001D30B03C01A5241C30A8B4201D3CB0266
:1050C000C01A5241830A8B4201D38B02C01A52414B
:1050D000430A8B4201D34B02C01A5241030A8B424E
:1050E00001D30B02C01A5241CDD2C3098B4201D366
:1050F000CB01C01A524183098B4201D38B01C01AE4
:10510000524143098B4201D34B01C01A524103095A
:105110008B4201D30B01C01A5241C3088B4201D309
:10512000CB00C01A524183088B4201D38B00C01AB6
:10513000524143088B4201D34B00C01A5241411ADD
:1051400000D20146524110467047FFE701B50020EA
:1051500000F006F802BDC0460029F7D076E7704798
:105160007047C046F0B505000F2A2FD90B00034346
:105170009B0734D116000C000300103E35090135A1
:105180002D01451927681F6067685F60A7689F60E9
:10519000E7681034DF6010339D42F3D10F239E4344
:1051A0001036851989191340032B1AD91E1F0023A5
:1051B000B4080134A400CF58EF500433A342FAD10D
:1051C0000324A643331D2240C918ED18002A05D038
:1051D0000023CC5CEC5401339342FAD1F0BD0500BE
:1051E000F6E71A00F2E7C046F8B5C046F8BC08BCBE
:1051F0009E467047F8B5C046F8BC08BC9E4670474E
:105200000400002043000000FFFFFFFFFFFFFFFF3F
:10521000FFFFFFFFFFFFFFFF000000000000000096
:1052200000E0D70103000000190000001800000092
:105230001600000017000000000000000000001031
:10524000000003410000000000B000400B0003001C
:105250000010004010110040031000000100000089
:1052600000100040000000000B02040000000000DD
:1052700004100040000000000708030100000000C7
:04528000000000002A
:08528400F0AEFF7F0100000005
:10528C0004000020000000000000000000000000EE
:10529C000000000000000000000000000000000002
:1052AC00000000000452000000000000000000009C
:1052BC0000000000000000000000000000000000E2
:1052CC0000000000000000000000000000000000D2
:1052DC0000000000000000000000000000000000C2
:1052EC000000000000200040000000000024F4003A
:1052FC000500000004192A3F4D00000000000000CA
:10530C000000000049390000093800003901000094
:08531C000D010000000000007B
:0400000300001BE1FD
:00000001FF
