:10000000000004200D03000035030000370300004A
:10001000390300003B0300003D0300000000000026
:100020000000000000000000000000003F0300008E
:1000300041030000000000004303000045030000EE
:10004000AD15000059450000D51000004703000021
:100050004703000047030000A11A00000D1600002E
:10006000415C00004703000047030000C911000085
:100070004703000047030000470300004703000058
:1000800047030000CD1200004703000047030000B3
:10009000470300001D4F0000470300004703000016
:1000A0004703000047030000470300004703000028
:1000B00047030000470300000000000000000000AC
:1000C0004703000047030000470300004703000008
:1000D0000514000047030000470300004703000029
:1000E0004703000047030000470300000000000032
:1000F000000000004703000000000000470300006C
:1001000000000000000000000000000000000000EF
:1001100000000000000000000000000000000000DF
:1001200000000000000000000000000000000000CF
:1001300000000000000000000000000000000000BF
:1001400000000000000000000000000000000000AF
:10015000000000000000000000000000000000009F
:10016000000000000000000000000000000000008F
:10017000000000000000000000000000000000007F
:10018000000000000000000000000000000000006F
:10019000000000000000000000000000000000005F
:1001A000000000000000000000000000000000004F
:1001B000000000000000000000000000000000003F
:1001C000000000000000000000000000000000002F
:1001D000000000000000000000000000000000001F
:1001E000000000000000000000000000000000000F
:1001F00000000000000000000000000000000000FF
:10020000044B05481B1A062B02D9044B03B11847AF
:10021000704700BF9F0000209C00002000000000ED
:1002200005490648091A891001EBD171491002D01D
:10023000034B03B1184770479C0000209C0000202E
:100240000000000010B5064C237843B9FFF7D8FF33
:10025000044B13B10448AFF300800123237010BD99
:100260009C000020000000009064000008B5084BCE
:100270001BB108490848AFF300800848036813B968
:10028000BDE80840CCE7064B002BF9D09847F7E7CC
:1002900000000000A00000209064000098000020F2
:1002A00000000000134B002B08BF114B9D46A3F527
:1002B000803A00218B460F461148124A121A05F067
:1002C000EDFD0D4B002B00D098470C4B002B00D0C0
:1002D00098470020002104000D000B4805F0E8FCC1
:1002E00005F01AFD2000290001F074FB05F0E6FC82
:1002F00000000800000004200000000000000000D2
:100300009C000020AC070020E55C00000649074A7D
:10031000074B9B1A03DD043BC858D050FBDC01F0AF
:10032000E3FCFFF7BFFF00000065000000000020B5
:100330009C000020FEE7FEE7FEE7FEE7FEE7FEE7A3
:10034000FEE7FEE7FEE7FEE7704700BF00B583B0BB
:10035000044B0093044A402300F034F803B05DF8E6
:1003600004FB00BF6D030000BC00002002B32DE9B8
:10037000F843114B114E8846144643F001090327F8
:100380000025224608EB0501002001F0D7FB0346BB
:100390001D444FF47A40E41A23B9337833B1C84787
:1003A000013F06D001233370002CEAD1BDE8F88369
:1003B00070473770BDE8F88300620000B800002085
:1003C000704700BFF0B595B0002415460F460846AB
:1003D0001E4600F0B9FD384623460822089505A9B7
:1003E0001A9D09960D950A948DF82C400C9400F0F6
:1003F000D1FD9DF81430079806998DF8114003F04F
:100400000302012A0290039128D0022A04D0384620
:1004100000F09EFD15B0F0BDBDF81650C3F3C20349
:100420008DF81030C5F389150826082D2C4628BFF5
:100430000824334622460EA9384600F0ABFD2D1B9A
:10044000214608AB02AA0EA8264400F007F9002DA9
:10045000EBD1384600F07CFD15B0F0BDBDF814605E
:10046000059DC6F38316C3F3C204B2000EA9384635
:1004700008238DF81040C5F3952500F08BFD08ABDF
:100480000093324628460EA902AB00F041F8BEE7C1
:1004900021B9114B03EBC0000068704730B40F4A1C
:1004A0000D4C121BD2080CD00D4D2B88834210D05E
:1004B000002303E035F82310814205D001339A422E
:1004C000F8D1002030BC704704EBC300006830BC9A
:1004D00070472046FAE700BF94640000D46400002F
:1004E0009C000020094B013903EBC00003290BD805
:1004F000DFE801F0020806040220704740797047E7
:100500000079704704207047002070479464000011
:100510002DE9F04784B01D460C9C002394F80C8014
:100520002373EB8881460E461746002B3BD1297A70
:1005300005290FD06B7A002B3DD1404BA88853F88A
:1005400021A00021FFF7A4FF524603463C49204664
:1005500000F08CF9062F0FD8DFE807F0484D535A0A
:1005600004633900F168B06896E80C0001910090CE
:100570004946204600F07AF92B7A052B05D06B7A94
:100580005BB93049204600F071F9204600F062F96D
:1005900084F80C8004B0BDE8F0872B4A2B49204634
:1005A00000F064F9EDE7284A00922949294A2046DB
:1005B00000F05CF9BBE7A888FFF794FF264B2349BE
:1005C00053F82020204600F051F9297AB5E77069E8
:1005D000316996E80C000390B068F76802918DE8E5
:1005E00081004946204600F041F9C5E749462046CA
:1005F00000F03CF9C0E732684946204600F036F981
:10060000BAE7494696E80C00204600F02FF9B3E718
:10061000B16896E80C0020460091494600F026F9A2
:10062000AAE7B068F768316996E80C0002918DE896
:1006300081004946204600F019F99DE79C620000C0
:100640008C620000986200008062000088620000F6
:10065000686200006062000028620000082900D97A
:1006600070472DE9F04F1C4617460023227B237369
:1006700085B0FB88039206460D46002B76D1397A69
:1006800005290FD07B7A002B78D1424BB88853F8DC
:1006900021800021FFF7FCFE424603463E492046EA
:1006A00000F0E4F8DFF810A1DFF810914FF0000837
:1006B0004545494620462ED916F8082008F101087C
:1006C00000F0D4F8B8F1080FF2D13449DFF8F0A007
:1006D000DFF8F080DFF8F090204600F0C7F84FF028
:1006E000000B10E0D9F800101144497811F0970F71
:1006F00008BF2E22414620460BF1010B00F0B6F850
:10070000BBF1080F1AD05D450FD916F80B207E2AD1
:10071000E8D92E22EEE708F101085146204600F004
:10072000A5F8B8F1080FC3D1CFE7514620460BF129
:10073000010B00F09BF8BBF1080FE4D13B7A052BCD
:1007400001D07B7A63B91649204600F08FF8204625
:1007500000F080F89DF80C30237305B0BDE8F08FF1
:10076000104A1149204600F081F8ECE70D4A00924A
:100770000E490F4A204600F079F880E7B888FFF765
:10078000B1FE0C4B084953F82020204600F06EF8CB
:10079000397A7AE79C6200008C620000586200009F
:1007A00098620000806200008862000068620000B9
:1007B0006062000028620000546200004C62000089
:1007C000946200005C6200002800002072B6024AB9
:1007D0001368013313607047CC010020034A13688B
:1007E000013B136003B962B6704700BFCC01002023
:1007F00000B550E8003F03EB010240E8002E9EF0F8
:10080000000FF6D110465DF804FB00BF00B550E8BC
:10081000003FA3EB010240E8002E9EF0000FF6D14E
:1008200010465DF804FB00BF38B5054600200C46B5
:10083000FFF7CCFF2A681368591C1160E9682A8AFF
:10084000641AB4FBF2F41C700020BDE83840FFF7D6
:10085000C5BF00BF826802B9704710B5044643693E
:100860000168006998470023A36010BD0EB400B56D
:1008700082B0039929B102AA04AB42F8043D00F00A
:10088000A3F802B05DF804EB03B070472DE9F04F18
:10089000164683B0B1428A4605469846DDF830B028
:1008A0000D9AC0F08D800B460127B3FBF6F39E42F4
:1008B00007F10107F9D9474538BF474612F0010350
:1008C000009302D1BBF1000F59D1A868012403E0C5
:1008D00008F1FF3806FB04F4B8F1010FF8D8BAFBB1
:1008E000F4F29642F6D9DFF8DC904FF00D0810E0F4
:1008F0002968421CAA600B54AA686B689A4202D30A
:100900002846FFF7A7FFB4FBF6F4C4B1BAFBF4F234
:10091000A86819F802300A2B04FB12AAE8D129684A
:10092000421CAA6001F80080A8686A689042DFD380
:1009300028460193FFF78EFFA868019BD8E7009B2C
:10094000B3B1BBF1000F13D0BB4588BF20240FD932
:10095000AB682A68591CA960D454AA686B689A428B
:100960000BF1FF3B07D2BBF1000F01D0BB45EFD12C
:1009700003B0BDE8F08F2846FFF76CFFF3E793075D
:1009800018D42024BB45A0D9A8682A68431CAB60B2
:100990001454A8686A6890420BF1FF3B05D2BBF182
:1009A000000F93D0BB45F0D190E72846FFF752FFE8
:1009B000A868F4E7B8F1000F0CBF30242024E1E769
:1009C000012778E708630000002900F0B9822DE9CB
:1009D000F04FDFF870A50D7885B0064691460C46BD
:1009E0000134002D00F0A080252D40F0A2814FF0B1
:1009F0000008214614F8012B2D2A00F09481302A9A
:100A000000F094812B2A00F086812A2A00F0A1812F
:100A1000A2F13005EBB2092B98BF013102D9CAE12E
:100A2000A3F130050C4611F8012BA2F1300005EBC3
:100A30008503092802EB4303F2D92E2A00F09581A1
:100A4000002701E014F8012F02F0FB03682BF9D016
:100A5000253A532A63D8DFE812F0400162006200B1
:100A60006200620062006200620062006200620076
:100A70006200620062006200620062006200620066
:100A80006200620062006200620062006200620056
:100A90006200620062006200620062006200620046
:100AA0006200620062006200620062006200620036
:100AB0006200620062006200620062006200620026
:100AC0004F01620062006200620062006200620028
:100AD0006200620062002901D100620062006200CF
:100AE0006200D10062006200620062006200620087
:100AF000AC00620062006E0062005400620062009E
:100B00004F01D9F800301A1DC9F800201968CDF836
:100B100004803B4600950A223046FFF7B7FE0134B9
:100B20002578002D7FF45CAF337B002B40F0BD8136
:100B300005B0BDE8F08FD9F800301A1DC9F80020C3
:100B400018F0010F1F6840F03981002F00F0D881A4
:100B5000384605F0F5F98046454515D9A5B14FF061
:100B6000200B00E085B1B2683368511CB16003F816
:100B700002B0B26873689A4205F1FF3502D330467D
:100B8000FFF768FE4545EDD1013F17F8015F002DE5
:100B9000C5D00A2DB36800F078813268591CB16065
:100BA000D554B26873689A42EFD33046FFF752FECD
:100BB000EBE7D9F80020131DC9F80030B36831689D
:100BC0001568581C3022B060CA54B36872689342EA
:100BD00080F027813268581C7821B060D154B26807
:100BE00073689A4280F022810022082301922946EC
:100BF000009310223046FFF749FE90E7D9F8003005
:100C00001A1DC9F80020D3F800B08BEAEB73A3EBF0
:100C1000EB73092B4FF0010108DD8AFB0302DB17A0
:100C2000C3EBA203092B01F10101F6DCB94238BF85
:100C300039462DB3BBF1000F02DB18F0040F00D0D2
:100C4000013D18F0020F00D0D7B118F0010F17D1F5
:100C5000002D00F04981A94238BF202310D2B2688C
:100C6000501CB06030688354B2687068824205F1ED
:100C7000FF3580F03B81002D00F03681A942EED196
:100C8000BBF1000FC0F23E8118F0040F40F0138159
:100C900008F00303022B00F0CD808DE820013B46D5
:100CA00059460A223046FFF7F1FD38E7D9F80030FF
:100CB0001A1DC9F800201D78B3680A2D00F0308194
:100CC0003268591CB160D554B26873689A42FFF417
:100CD00026AF3046FFF7BEFD21E7B3683268581CE7
:100CE0002521B060D154B26873689A42FFF417AFFF
:100CF0003046FFF7AFFD12E7D9F800301A1DC9F8EA
:100D000000201968CDF804803B460095102230463B
:100D1000FFF7BCFD03E7214614F8012B2D2A48F00C
:100D200004087FF46CAE48F0010862E648F002085F
:100D30005FE60A2DB3682FD03268591CB160D554D4
:100D4000B26873689A42FFF4EBAE3046FFF782FD5B
:100D5000E6E6D9F800301A1DC9F800204A781D6867
:100D60002E2A01F101047FF46BAE6278A2F1300308
:100D7000092B04F101044FF000073FF665AE07EBC5
:100D8000870702EB470714F8012FA2F13003092B64
:100D9000A7F13007F3D957E6591C3268B1604FF01C
:100DA0000D01D154B36872689342C5D33046FFF742
:100DB00051FDB368C0E70C4600253EE6B846A8EBF7
:100DC000070B18F8013B9BB10A2BB1684CD0326875
:100DD000481CB0605354B26873689A42EFD33046EF
:100DE000FFF738FDA8EB070B18F8013B002BEBD100
:100DF0005D457FF694AE202702E0002D3FF48FAED4
:100E0000B2683368511CB1609F54B26873689A42EB
:100E100005F1FF3502D33046FFF71CFD5D45ECD1EF
:100E20007DE63046FFF716FDB368D3E63046FFF7A0
:100E300011FDD9E6002F7FF430AF002D5ED0A9421E
:100E400038BF3023BFF429AFB268501CB06030689F
:100E50008354B2687068824205F1FF353CD2002DA0
:100E60004CD0A942F0D118E7481C3268B0604FF06E
:100E70000D005054B16872689142A8D33046029375
:100E8000FFF7E8FCB168029BA1E7591C3268B1602A
:100E90004FF00D01D154B36872689342FFF47DAEF8
:100EA0003046FFF7D7FCB36877E6304605B0BDE8BB
:100EB000F04FFFF7CFBCB268531CB36033682B20F0
:100EC0009854B26873689A42FFF4E2AE30460291D9
:100ED000FFF7C0FC0299DBE6304603930291FFF76F
:100EE000B9FC039B0299BAE70025C9E63046039393
:100EF0000291FFF7AFFC039B0299BCE60025CCE60C
:100F0000B84629E6B268531CB36033682D20985464
:100F1000B26873689A42CBF1000BFFF4B9AED5E723
:100F2000591C3268B1604FF00D01D154B36872683A
:100F30009342FFF4C5AE3046FFF78CFCB368BFE6C2
:100F4000704700BF6766666604300121FFF750BC3A
:100F5000F8B5012104460430FFF758FCC0B200B1D7
:100F6000F8BD6679721E12D02346013082421B689A
:100F7000FBD81F68002EF3D0214600240D680134F1
:100F80003846FFF751FCA6422946F7D1F8BD27683D
:100F9000F2E700BF2DE9F843C78890F805E0154651
:100FA00007FB0EFEEC18AEF1040E1A1DA64588468E
:100FB000B2FBF7F638BFAEEB030507FB162104467C
:100FC00016B1013E2468FCD17E1AAE4228BF2E46DF
:100FD0009DB14FF0000904312144AD1B324608EBAE
:100FE000090004F0C1FEAF42B14424683E464FF010
:100FF000000128BF2E46002DEDD1BDE8F88300BFCB
:1010000010B568B101280AD10C4C2369A07033B126
:101010000CCB0120226198472369002BF8D110BD29
:10102000064CA36801226270002BF8D00CCB002084
:10103000A2609847A368002BF8D110BDD001002012
:1010400010B50B4C237882B013B1852002B010BDCF
:1010500008486360A3602361E36000F06FFA0190C9
:1010600000F07AFA01980123237002B010BD00BF8E
:10107000D00100200110000038B5154DAB780446B2
:1010800073B110B14368012098470020FFF79EFB21
:10109000EB680133EB600020BDE83840FFF79EBBF2
:1010A00003F0FF00FFF792FB64B12A6942B194425A
:1010B00008D0134601E09C4204D01B68002BFAD1F3
:1010C00022602C61EB68002BE2D100F057FADFE7D9
:1010D000D0010020014B1B68184700BFE40100202D
:1010E00070B443791D4C1E4E03EB430546F8232094
:1010F000655D15B1082070BC704790F904308A789E
:10110000002B22DB03F1604303F561435201D2B2AD
:1011100083F8002390F90430124E012503F01F02DA
:101120005B0905FA02F246F8232003680A88C3F82F
:10113000082543790879C97803EB4303E218E5549D
:1011400050709170002070BC7047074D03F00F0382
:1011500052011D44D2B22A76DCE700BFEC01002028
:10116000F801002000E100E0FCEC00E00368044A24
:1011700001211960437903EB43030221D1547047E5
:10118000EC0100200368044901225A60437903EB13
:101190004303CA54704700BFEC01002010B4036839
:1011A0000022C3F8002183B0D3F800310268019314
:1011B0000123019CC2F8443311B10268C2F8043320
:1011C00003B05DF8044B704710B53B4BD3F80423D4
:1011D000D20384B003D5394A116800293CD1364B7B
:1011E000D3F80423940303D5354A1168002942D16A
:1011F000314BD3F80423500303D5324A1168002938
:1012000049D12D4BD3F80423D10702D5D3F80021BF
:10121000B2B9294BD3F80423920702D5D3F804219D
:101220000AB904B010BD0022C3F80421264AD3F83D
:101230000431019305201368019A984704B010BD4A
:101240000022C3F80021204AD3F800310293042081
:101250001368029A9847DCE74FF480310020C3F806
:101260004813194CC3F808131060136803932368DC
:10127000039A9847B3E74FF400310024C3F84813AA
:101280001148C3F808131460136803930368039AA2
:1012900001209847ACE74FF480210024C3F848139D
:1012A0000948C3F808131460136803930368039A8A
:1012B00002209847A5E700BF00B0004040B10040C1
:1012C00044B1004048B10040F801002010B5474B40
:1012D000D3F80423D10384B003D5454A116800290B
:1012E00045D1424BD3F80423920303D5414A1168F8
:1012F00000294BD13D4BD3F80423540303D53E4A78
:101300001168002952D1394BD3F80423100303D5B7
:101310003A4A1168002959D1344BD3F80423D10734
:1013200002D5D3F80021B2B9304BD3F80423920789
:1013300002D5D3F804210AB904B010BD0022C3F8C5
:1013400004212F4AD3F80431019305205368019AF0
:10135000984704B010BD0022C3F80021284AD3F8F2
:101360000031029304205368029A9847DCE74FF457
:1013700080310020C3F84813214CC3F808131060D3
:10138000136803936368039A9847AAE74FF4003100
:101390000024C3F848131A48C3F8081314601368EC
:1013A00003934368039A01209847A3E74FF48021F1
:1013B0000024C3F848131248C3F8081314601368D4
:1013C00003934368039A022098479CE74FF4002157
:1013D0000024C3F848130A48C3F8081314601368BC
:1013E00003934368039A0320984795E70010014050
:1013F0004011014044110140481101404C1101408D
:10140000F801002010B5474BD3F80423D10384B072
:1014100003D5454A1168002945D1424BD3F804232E
:10142000920303D5414A116800294BD13D4BD3F8B3
:101430000423540303D53E4A1168002952D1394B85
:10144000D3F80423100303D53A4A1168002959D16F
:10145000344BD3F80423D10702D5D3F80021B2B915
:10146000304BD3F80423920702D5D3F804210AB9EC
:1014700004B010BD0022C3F804212F4AD3F8043170
:10148000019305209368019A984704B010BD00228B
:10149000C3F80021284AD3F800310293042093684E
:1014A000029A9847DCE74FF480310020C3F84813D4
:1014B000214CC3F80813106013680393A368039AC0
:1014C0009847AAE74FF400310024C3F848131A489C
:1014D000C3F808131460136803938368039A012008
:1014E0009847A3E74FF480210024C3F8481312481B
:1014F000C3F808131460136803938368039A0220E7
:1015000098479CE74FF400210024C3F848130A4889
:10151000C3F808131460136803938368039A0320C5
:10152000984795E700400240404102404441024054
:10153000484102404C410240F8010020054A13791D
:101540000BB185207047012110605371184611714D
:10155000704700BF04020020074B1A68D20704D46A
:10156000C021012283F800131A604FF0804301224A
:10157000C3F81825704700BF00E100E010B4094B24
:10158000094A0021196083B01B680193019C4FF048
:10159000804102200123C1F80403136003B05DF809
:1015A000044B7047040100400800004010B5144B84
:1015B0001A6882B062B10021124A19601B68507922
:1015C00000934FF080410123009CC1F8083390B193
:1015D0000D4B1A686AB100221A601B6801934FF024
:1015E00080420221074B0198C2F808131B680120B2
:1015F000984702B010BD116853718847E8E700BFF3
:101600000001004004020020040100402DE9F041E7
:10161000684B1A6888B0002A3CD1674F97F82E3083
:10162000002B45D1654B1A68002A5ED1644B1C68BB
:10163000002C6AD17E699EB14FF000480125B6FAB0
:1016400086F2930003F58C7303F1804101F5E041CC
:1016500028FA02F2086826EA020620B9002EEED126
:1016600008B0BDE8F081A3F58C730C6083F0040230
:1016700009680491C2F38002DB088DF819208DF807
:1016800018308DF814503B68049A05A89847002E2E
:10169000D5D1E5E70022484F1A60196897F82E3037
:1016A00000910099002B39D097F82F30002B4ED1A4
:1016B000444B1A68002AB5D000221A6097F82D0012
:1016C00019687B8B019184B2A34201994ED85FD0F7
:1016D000384B3D4A002119601B680293012302998F
:1016E0001360364B1A68002AA0D000221A6008A89E
:1016F0001B680393022100F80C1D3B6803993A74A0
:1017000098472F4B1C68002C94D000221A601B684D
:101710000593059B3A7408B0BDE8F081FA687868D3
:1017200039898DF814300690ADF81C10002A2CD0A1
:101730002648398B7A600122FB6079833981026007
:101740003B6805A89847002387F82F3066E7FB68B9
:10175000786839898DF814200690ADF81C10A3B173
:10176000398B7B60FA6079833981E9E73A89796856
:10177000164D1B1B9BB292B2D21A01EB42027B8325
:10178000C5F82C26C5F83006A2E700233B74D7E73E
:10179000FB684BB10D497A83012287F82F20C1F8ED
:1017A0002C36C1F8300693E701227B8387F82F207F
:1017B0008EE700BF047100400C0200201071004051
:1017C000147100400071004004700040007000403F
:1017D00010B4064A064B1168147919601C71194639
:1017E000052200205DF8044B00F020BC70020020B0
:1017F00060020020F8B54FF0A0434FF08051C3F8CD
:101800000815D3F81025C3F80C15C2F3840002F0B4
:10181000010141EA4000C2F38071654C41EA400198
:1018200049004FF400002170C3F80805D3F81025D3
:10183000C3F80C05C2F3840502F0010040EA450537
:10184000C2F3807040EA450040004FF480056070AC
:10185000C3F80855D3F81025C3F80C5502F001065B
:10186000C2F3840546EA4505C2F3807646EA45069A
:1018700076004FF40015A670C3F80855D3F810256C
:10188000C3F80C55C2F3840702F0010545EA470787
:10189000C2F3807545EA47054FF0005E6D00E570C4
:1018A000C3F808E5D3F81025424FC3F80CE5C2F39E
:1018B000840E02F0010343EA4E03C2F3807242EA4F
:1018C00043023B7852002271D3B93B4B93F800E0BE
:1018D0008E450BD15978814208D19978B14205D112
:1018E000D978A94202D11B7993422BD0334B34498A
:1018F00025681A71002001221D6008603A7021E0FD
:101900002E4B93F800E08E452ED1597881422BD191
:101910009978B14228D1D978A94225D11D7995422B
:1019200022D127490A680132052A0A600AD1254EC8
:10193000214F1B683B603146002033603D7135719B
:1019400000F074FB237893B9637883B9A37873B9F3
:10195000E37863B9237953B91B4A13680133B3F5AC
:10196000FA7F136007D8F8BD00233B70EAE7164BF7
:1019700000221A60F8BD1548FFF704FC1448FFF771
:1019800001FC4FF0A0434FF080554FF400044FF49A
:1019900080004FF400114FF00052C3F80855C3F80F
:1019A0000845C3F80805C3F80815C3F80825F8BDAD
:1019B000780200206C0200207002002080020020CB
:1019C00068020020600200205C02002050630000DA
:1019D0004863000008B5002000F07AFA642000F0A7
:1019E000DDFB2648264D00F0B5FB264800F0C4FB81
:1019F00000F000FBFFF724FB0020FFF73DFB224A2D
:101A000022480021FFF76CFB214A22480021FFF702
:101A100067FB01211D48FFF7C1FB01211D48FFF7AE
:101A2000BDFB1A48FFF7A2FB1A48FFF79FFB4FF0D8
:101A3000A0431948194AC3F8182703214FF000465C
:101A40004024C3F81427C3F81027C3F80C27C3F8A1
:101A50000827C3F80027C3F87827C3F87017C3F81E
:101A60005C17C3F85817C3F85417C3F87417C5F8B0
:101A70000463046040BF20BF20BFFBE704030201F2
:101A80000060004008070605D11700005063000001
:101A9000F51700004863000000E100E004000200C8
:101AA000F8B5134BD3F87C2102B30024C3F87C4172
:101AB0001048FFF75BFB1048FFF758FB4FF0A043BF
:101AC0000E4A4FF080574FF400064FF480054FF454
:101AD00000104FF00051C3F80C75C3F80C65C3F843
:101AE0000C55C3F80C05C3F80C151460F8BD00BF05
:101AF0000060004050630000486300005C0200206A
:101B000000B585B08DE806009DF8003020220392D4
:101B10001BB103AA024900F0E3FA05B05DF804FB2B
:101B20003C02002082B002AB03E9060002B070471D
:101B300082B002B0704700BF704700BF2DE9F84F78
:101B40004400DFF87CA126180AEBC6068146D6F8C9
:101B50002C80B8F1010F8B46174661D038D3B8F10D
:101B6000020F30D100F1010909EB4909756A4FEA0A
:101B7000C9094FF000081CE0326A641BBC420AEB42
:101B800009012346A2EB050428BF3B469C42486856
:101B900028BF1C4628445946224604F0E5F8336A1B
:101BA00025449D4208BF00253F1BA044A344756205
:101BB0000BD0B36AAB4203F1FF34DDD8326A134471
:101BC000013B5C1BDAE74FF000084046BDE8F88FA8
:101BD000B36A756AAB429CBF326A9B18013B5B1BC0
:101BE0009F42F2D804440AEBC40400F10109266ABA
:101BF000761B09EB4909B7420AEBC90A56D3DAF852
:101C0000040032462844BD1B04F0AEF8DAF80400A4
:101C10000BEB06012A4604F0A7F8B8466562D4E744
:101C2000B36A756AAB4226D903F1FF38366AA8EB6E
:101C30000508B84528BFB846761BB04523D309F13F
:101C4000010707EB47070AEBC707A144786832464C
:101C5000594628440AEBC90AA8EB060504F084F8A3
:101C600078680BEB06012A4604F07EF8CAF8245087
:101C70004046BDE8F88F366A03EB060808F1FF38E6
:101C8000A8EB0508D5E709F1010303EB43030AEBD1
:101C9000C303A14458680AEBC90A2844594642467E
:101CA000454404F061F8CAF824508EE7DAF80400DD
:101CB0003A4628443D4404F057F8B846656284E744
:101CC00034070020BFF34F8F0549064BCA6802F462
:101CD000E0621343CB60BFF34F8F00BFFDE700BF4F
:101CE00000ED00E00400FA0510B54FF080414FF020
:101CF00080520020C1F80C01684BC1F81001C1F8F6
:101D00003805D2F80414C3F82015D2F80814C3F823
:101D10002415D2F80C14C3F82815D2F81014C3F8FF
:101D20002C15D2F81414C3F83015D2F81814C3F8CF
:101D30003415D2F81C14C3F84015D2F82014C3F897
:101D40004415D2F82414C3F84815D2F82814C3F85F
:101D50004C15D2F82C14C3F85015D2F83014C3F82F
:101D60005415D2F83414C3F86015D2F83814C3F8F7
:101D70006415D2F83C04C3F86805D2F84004484919
:101D8000C3F86C050968D2F84424C3F87025082903
:101D900026D04FF08043D3F80024D10744BF6FF022
:101DA0000102C3F800243F4AD2F8883043F470039C
:101DB000C2F88830BFF34F8FBFF36F8F4FF01023FF
:101DC000D3F80C22D2074BD4D3F80022002A21DB0F
:101DD000D3F80432002B1DDB334B344A1A6010BD9C
:101DE000334B1B68002BD4D13248334A334C046048
:101DF0003349344BFB20C2F818050A681B68324887
:101E000022F00F0203F00F0313434FF400720B6034
:101E10000260BEE72D4A0123C2F80435D2F800342F
:101E2000002BFBD04FF010231221284AC3F80012D8
:101E3000D2F80034002BFBD04FF010231221234A9C
:101E4000C3F80412D2F80034002BFBD000231F4942
:101E5000C2F80435D1F80034002BFBD0FFF732FF75
:101E60001A4B0122C3F80425D3F80024002AFBD022
:101E70004FF01021154AD1F80C3223F00103C1F8BC
:101E80000C32D2F80034002BFBD000230F49C2F8EB
:101E90000435D1F80034002BFBD0DFE700C0004050
:101EA0003001001000ED00E0080000200090D00399
:101EB000340100108C56004000F0004048810300BF
:101EC000E40E0040580200104096024000E001403D
:101ED0002DE9F0413F4B404D404F002421460C225C
:101EE00080463F481C602C7003F0D8FF3D4801F04D
:101EF00043F93860002845D0042001F09FFB3B687F
:101F00005E7DD6B9384C2268531E0F2B44D8374912
:101F1000084603F029FF2168344801F073FBB8F14B
:101F2000010F4FF001060ED1022001F069F83B6865
:101F3000587D98B901F0C8FB13E0022326462B70A8
:101F4000B8F1010FF0D041D3B8F1020F20D0052332
:101F50002B7000263B68587D0028EBD002232B70A5
:101F60000026002001F080FB3B685B7DBBB10223B3
:101F700001202B7001F094FB00231D4A18461360CA
:101F800000F098FF012300262B703046BDE8F08159
:101F9000002001F035F8DDE707232B70D0E70120A2
:101FA00001F06EFB3B685C7D002CE0D1204601F027
:101FB00091FB012001F074FB0D4B20461C6000F0EA
:101FC00079FF002EDED03046BDE8F081012001F01F
:101FD00017F8BFE7900200208C0200209402002036
:101FE0009C020020A52100001C0000200C00002005
:101FF0009802002008B50B4B186878B101F05CFA24
:1020000080B218B100F05CFF012008BD01F0EAFACF
:102010000028F7D1044B11221A7008BD024B02228E
:102020001A7008BD940200208C020020072808D8EE
:1020300069B1202A10D9284B062200211A700846BF
:102040007047254B042200211A7008467047224B26
:1020500003221A7008467047F0B583B0054616464D
:102060000C4601F093F9022806D91B4B09221A707D
:102070000021084603B0F0BD284601F089F9022886
:1020800004D9154B0A221A700021F2E701F082F9F7
:10209000012804D8104B08221A700021E9E701F04A
:1020A0000FF94378067043F0010343700746324648
:1020B0002146023003F058FE3946E8B201F014F927
:1020C00001460028D5D10190044803F059FA024B8B
:1020D00001990F221A70CCE78C020020FC00050049
:1020E00070B50D461646044601F052F988B15DB14F
:1020F000204601F049F9326803789A420DD2134B19
:1021000006221A70002070BD104B03221A70284658
:1021100070BD0E4B0B221A7070BD204601F02AF9DB
:10212000044658B10146284611F8022B326003F0EC
:102130001BFE204601F0CEF8012070BD044803F0DC
:102140001FFA024B0F221A70204670BD8C0200202D
:102150002601050008B5064B1B685B7D23B1054BC6
:1021600002221A70002008BD01F016F9012008BDF6
:10217000940200208C02002008B5064B1B685B7D92
:1021800023B1054B02221A70002008BD01F09AF914
:10219000012008BD940200208C02002001F05EBAEC
:1021A000704700BF70B5037882B00446072B00F279
:1021B000C380DFE803F03663968492040821FFF7BA
:1021C000BBFC02B070BD654A8379126893420AD2A3
:1021D000634A12683AB102EB83039968013199604E
:1021E0005368013353605F4B1B68002BE9D0617962
:1021F0002079984702B070BD584A8379126893429B
:102200000AD2574A12683AB102EB83039968013146
:102210009960536801335360534B1B68002BE6D120
:10222000CFE74E4A037C126893420AD24C4A1268A6
:102230003AB102EB8303996C01319964136801335D
:1022400013606D4628460822002103F027FEA37B79
:10225000667BA168227B60688DF80030E37BCDF857
:1022600002108DF806208DF8073001F033F8304663
:1022700095E80600FFF744FC02B070BD6D462846A5
:102280000822002103F00AFE384B1B685B7D13B95E
:10229000374803F075F9A268267B637B6068CDF848
:1022A000022000228DF800208DF8073001F012F88E
:1022B000304695E80600FFF735FC02B070BD2D4BA7
:1022C0005A68197801325A6000293FF47AAF9A6847
:1022D000002A36D0013A9A6073E7FFF761FF02B037
:1022E00070BD1E4A037B126893420AD21C4A1268D0
:1022F0003AB102EB8303996C01319964136801339D
:10230000136003220021684603F0C8FDA37A217AF6
:10231000E27A657A8DF800308DF801108DF8022090
:1023200064681BB1ACB1204600F0D4FF2846009988
:10233000FFF7FEFB02B070BD0F4803F021F902B0B9
:1023400070BD00F055FE00287FF439AF00F012FE9A
:1023500037E70A4803F014F9E5E700BF1C00002046
:102360009802002088020020A80200209402002089
:102370003D0405009C020020BC0405006304050028
:10238000024A034B0F211170186070478C02002025
:10239000900200202DE9F0475C4BD3F80024012A7D
:1023A00086B003D0D3F83435002B36D1584B594C76
:1023B0005B681D782369202D8CBF00250125002B2B
:1023C00030D003F055F8012802D0534803F0D8F874
:1023D000524E33681B7D002B47D101F0C5FF45BB32
:1023E00023784F4A0121022B117001D063688BB111
:1023F00002F0E4FE054601F0EBFCA27D8DF8090039
:10240000062301A88DF808508DF80A208DF80430B5
:1024100002F034FD06B0BDE8F0873E4C236900258C
:10242000002BCED103F05EFB0028CAD1012323612B
:10243000C7E70121084602F03DFE0546002840D0CE
:10244000022816D003F0F4F8364B21785A69E06080
:102450000229626000D092B3DB68334A0020136027
:1024600003F0ECF806B0BDE8F087304803F088F8D8
:10247000B3E702F0A9FE3368278993F916906689BD
:10248000804602F09BFE054601F0A2FCA17D8DF87E
:1024900013000022012301A88DF81090CDF80880C8
:1024A000ADF80C70ADF80E608DF811508DF8141069
:1024B0008DF804208DF8123002F0E0FCC2E79B6832
:1024C000CBE702F081FE3368B4F8088093F916A0D8
:1024D0006789814602F072FE064601F079FCA37D11
:1024E0008DF8130001A88DF810A0CDF80890ADF874
:1024F0000C80ADF80E708DF811608DF804508DF8D9
:1025000012508DF8143002F0B9FC9BE70010004027
:102510000C030020F40200203C07090024030020E3
:10252000B8020020C0020020AC0200203D070900D4
:1025300038B5224D224C01F017FF0123214A2B70A0
:102540002149D2F83035096923F0FF030B43C2F863
:1025500030350023236102F08BFFE8B902F0CAFC9A
:10256000012821D8022001F0CBFD002001F032FE2D
:1025700002F07EFF032802D0144803F001F82B7804
:10258000012B02D0124802F0FBFF124B0221002265
:102590002970C4E9033238BD02F06AFF0328E1D094
:1025A0000D4802F0EDFFDDE702F01AFE6060002842
:1025B000D8D10A4802F0E4FFD4E700BFB9020020F6
:1025C0000C03002000100040C0020020010609009A
:1025D00007060900E1250000F9050900F4050900D6
:1025E0002DE9F041624B634CD3F80024012A88B0F6
:1025F00002D0D3F8343503BB63681B78202B1CD87A
:102600005D4D5B4B0321002229702260D3F80864E2
:10261000D3F80824C3F82C25D3F80C24019402A87D
:10262000012300903146184602F048FE032800F2CC
:102630008F80DFE800F0805C382C504E4E4D3378B0
:102640004B4A0321297000212160022BD2F8087423
:1026500001D0736873B101F0BBFBB27D8DF811003E
:10266000062303A88DF812208DF810708DF80C3019
:1026700002F004FC0023CDE900331A46194618463F
:1026800002F01CFE042802D03D4802F079FF2668C3
:10269000002E54D001233B4A6375042322612B7022
:1026A00008B0BDE8F081029B002B5DD0304602F0FF
:1026B00027FF002850D0344B029F1B6893F91680E7
:1026C00001F086FB2D4B8DF81700997D8DF8148055
:1026D0000222012303A804978DF815608DF81810C5
:1026E0008DF80C208DF8163002F0C8FBCFE7029B66
:1026F00013B1264802F044FF304602F001FF78B3E0
:10270000214B1B6893F9167001F062FB1B4B8DF88F
:102710001700997D8DF814700023022203A88DF80C
:1027200015608DF818108DF80C2004938DF8163074
:1027300002F0A4FBABE7164802F022FFA7E701F086
:1027400013FE66752661FFF7F3FE08B0BDE8F08161
:10275000104802F015FF9AE70F4802F011FFAAE7B0
:102760000E4802F00DFFCBE70D4802F009FF9DE790
:10277000001000400C030020B9020020F4020020E9
:1027800058060900012E0000240300202D06090030
:1027900038060900490609003D0609002E06090011
:1027A0003C06090030B589B003F096F9012828D11C
:1027B0001E4D01F0D9FD08A80523002400F8143DA2
:1027C000AC706C7502F05AFB194A1A4B14704FF436
:1027D0004072C3F8082502F04BFE80B1022820D9D0
:1027E00003280CD1CDE90044234622462146204649
:1027F00002F064FD042802D00F4802F0C1FE09B0C7
:1028000030BD03F047F90D4B1B7F1BB94FF08043E0
:1028100001225A600020054D02F08AFE00236B6001
:10282000C7E72146204602F045FCE3E7F40200201A
:10283000B902002000F0014048020900C002002057
:102840002DE9F04FE34DE44FE44AE54E4FF4407874
:1028500000240123C7F85445C7F80885C5F8FC4F84
:10286000C5F8FC3FD5F8143523F48073C5F814354A
:10287000D5F8143523F00F0343F00603C5F81435DB
:10288000D5F8143523F4702343F44033C5F81435D8
:10289000D5F8183523F00073C5F81835D5F8183574
:1028A00043F08073C5F81835D5F8183523F0FF03C9
:1028B00043F02003C5F81835D5F81835022123F464
:1028C0007F4385B0C5F81835C2F8801103F0B0F920
:1028D000C44AC54BC7F85C05C7F85825C7F8048536
:1028E0001968C24801F07AFAD6E90832C04996F868
:1028F0001DA00860110A180A0E464FEAC31B0BF40C
:10290000FF474FEAC01E4FEAC61B0BF4FF490EF407
:10291000FF4EC0F3C01B4BEA0E0B4FEA401E0EF0F9
:10292000400C4BEA0C0EC3F3C01C4CEA070B4FEAF9
:10293000431C0CF040074BEA070CC6F3C01B4BEAE4
:10294000090B4FEA46194FEAC21809F040094BEA51
:10295000090B08F4FF48C2F3C019190C49EA08082A
:102960004FEA42190096CF01160C09F0400948EAD7
:10297000090807F4FF474FEAC619029709F4FF490F
:10298000D5F81875CDF80C904FEAC00909F0200968
:102990004EEA090E4FEAC309029E09F0200927F406
:1029A000E02747EA0A474CEA090CC1F3C01ACDF800
:1029B00004C04AEA060A4FEA411C009E0CF0400C93
:1029C0004AEA0C0A4FEAC60C0CF0200C4BEA0C0B3E
:1029D0004FEAC20C0CF0200C48EA0C0CCDF808C0F1
:1029E000C5F81875470007F010074EEA070E4708AC
:1029F00007F008074EEA070EC70807F0040740096A
:102A00004EEA070700F00200019E074358004FEA14
:102A1000530E00F0100030430EF0080E40EA0E0096
:102A20004FEAD30E4FEA13690EF0040E5B0940EA39
:102A30000E0003F0020303431B06FFB243EA0747FD
:102A4000CB0003F020034AEA030A4B00480803F0D6
:102A500010034AEA030300F008000343C808019783
:102A600000F004004F09034307F002014FEA491048
:102A7000039E194300F04003100CC0F3C017374306
:102A80000646400100F0400007434FEAE91040EAE3
:102A9000C9101843009B4FEA42084FEA430E029BBD
:102AA00008F0100843EA0808F30003F020031F436E
:102AB000019BC9B243EA01214FEAC90303F0200395
:102AC00018434FEA490303F0100318434FEA590330
:102AD00003F0080318434FEAD90303F004034FEA55
:102AE00059194FEA126C034309F0020900984FEAA2
:102AF0004C1A43EA09094FEAEC1343EACC130AF0F3
:102B0000400A43EA0A0A0EF0100E43084BEA0E0E82
:102B100003F008034EEA030E530803F0080348EAE3
:102B20000308730003F010031F434FEACC0303F0C4
:102B300020034AEA030AC30803F004034EEA030E23
:102B4000D30803F004034FEA501B520948EA030874
:102B50000BF00200730802F0020203F008034EEAD1
:102B6000000048EA02021F43C0B24FEA4C031206BB
:102B700003F0100342EA0042F0084AEA030A00F0B8
:102B800004007309384303F0020318434FEA5C035F
:102B90004FEADC0703F0080307F004074AEA0303DF
:102BA0004FEA5C1C3B430CF0020CC0B243EA0C033E
:102BB00042EA00225FFA89F9DBB2094E49EA0101D3
:102BC0001343C5F81C152846C5F82035FF2706F124
:102BD00028051CE00010004000F0014000E100E08A
:102BE000C002002004110040BC0200200C030020A1
:102BF00024030020D0F824150A40C0F82425D0F87A
:102C0000242501341343082CC0F824353CD015F892
:102C1000012B02F00101D3094FEA421C43EAC11320
:102C20000CF0400CD10043EA0C0301F020014FEA04
:102C3000420C0B430CF0100C510843EA0C0301F05A
:102C400008014FEAD20C0B430CF0040C520904F0BB
:102C5000030102F00202C90043EA0C031343032CF0
:102C600007FA01F203FA01F36FEA0202C2D9D0F8BF
:102C700028150A40C0F82825D0F828250134134328
:102C8000082CC0F82835C2D12149224B91F83020B8
:102C9000C3F80C25D3F8342591F8311022F0FF0247
:102CA0000129C3F8342524D01ED302290ED01A4896
:102CB00002F066FC164B93F832300BB1012B02D1B7
:102CC000144AC2F8103505B0BDE8F08FD3F83425AA
:102CD000124942F002024FF6FF70C3F83425C3F8E0
:102CE0003C05C3F83815E5E7D3F83425C3F8342597
:102CF000E0E7D3F83425FF2042F0010240F207114B
:102D0000C3F83425C3F83C05C3F83815D2E700BF33
:102D1000C00200200010004033040900211001000F
:102D20002DE9F0412D4F2E4D2E4E4FF00008C7F8E3
:102D3000088002F043FAC5F82C05D5F8304502F0BA
:102D40003DFA012303FA00F024F0FF040443C5F820
:102D5000304502F039FA306002F03CFA224A234B47
:102D600082F80080F360706002F038FCC5F8080556
:102D700002F05EFCB87502F07BFB012804D002F083
:102D800077FB022815D1002001F0BAF902F054FFB8
:102D9000174B184AC3F850051268174C5268C3F80D
:102DA0005425206818B1037873B903792BB9BDE8AD
:102DB000F081124802F0E4FBE5E700F0F7FF20683D
:102DC000BDE8F04100F0D4BF02F036FF216800F00A
:102DD0006DFF20680379002BE9D0EEE7F4020020B4
:102DE000001000400C030020B802002095230000D2
:102DF00000F0014024030020BC0200209C060900D2
:102E000038B5234C234D0523237001F0ADFA01237F
:102E1000214A23702149D2F83035096923F0FF0394
:102E20000B43C2F8303500232B6102F021FBE8B9D7
:102E300002F060F8012821D8022001F061F9002099
:102E400001F0C8F902F014FB032802D0144802F084
:102E500097FB2378012B02D0124802F091FB124B12
:102E6000022100222170C5E9033238BD02F000FBC7
:102E70000328E1D00D4802F083FBDDE702F0B0F952
:102E800068600028D8D10A4802F07AFBD4E700BF76
:102E9000B90200200C03002000100040C0020020F6
:102EA0000106090007060900E1250000F9050900EF
:102EB000F4050900014B1860704700BFBC020020F8
:102EC00038B5234C637D03B138BD224DFFF7B8FC04
:102ED000AB68002B34D06B6873B302F037FB38BBA0
:102EE000002002F025FB0123637502F0F5FD0128A7
:102EF000EAD102F031FB38BB00226421164802F00F
:102F0000F7FD164B1B7F7BB94FF08042144801211F
:102F10000160C2F80031116000BF00BF00BF00BFF8
:102F2000D2F80031002BFBD0BDE8384002F0A6BD3E
:102F30000C4802F025FBD3E70B4802F021FBCCE75D
:102F40000A4802F01DFBC6E7094802F019FBD3E767
:102F5000F4020020AC02002065550000C0020020F1
:102F600014050040D4020900CF020900CE02090076
:102F7000B906090008B5012282F31088174B597D64
:102F800009B1997819B1002383F3108808BD9A70AC
:102F900002F0A2FD0128F6D102F0DEFAD0B900223B
:102FA00064210F4802F0A4FD0E4B1B7F7BB94FF04C
:102FB00080420D4801210160C2F80031116000BF5C
:102FC00000BF00BF00BFD2F80031002BFBD002F0E1
:102FD00055FDD8E7054802F0D3FAE0E7F4020020F7
:102FE00065550000C002002014050040B906090024
:102FF000024B587D80F00100704700BFF4020020B2
:1030000070B5012388B083F31088514C2378834234
:1030100007D0627D6070054642B102F05DFD012877
:103020002DD0002383F3108808B070BD002B60D032
:10303000002D43D0474B484E0025C3F8545501F0AE
:1030400093F923783561012BC6E90055C6E902558D
:1030500055D0022B61D06368002B56D13F4B996845
:103060003F4A08A8042300F8143D637823701160D8
:1030700001F004FF002383F3108808B070BD02F054
:103080006BFA00285BD100226421364802F030FD43
:10309000324B1B7F7BB94FF08042334801210160E6
:1030A000C2F80031116000BF00BF00BF00BFD2F8FE
:1030B0000031002BFBD002F0E1FCB2E7254B4FF4CE
:1030C0004072C3F8082502F0D3F90028B2D00228D4
:1030D0001ED90328AED1CDE900552B462A462946F4
:1030E000284602F0EBF80428A4D0204802F048FA61
:1030F000A0E7FFF7A5FB6578002D9BD1DEE702F086
:10310000B7F900BB2378022BA5D1144BD968A7E7E8
:103110002946284601F0CEFFE5E701F025F9144BDA
:1031200035611D7002F0A4F90328EBD1CDE90055FB
:103130002B462A462946284602F0C0F8E2E70D4809
:1031400002F01EFA9FE72946284601F0B3FFD9E7AF
:10315000F402002000F001400C030020C002002017
:10316000AC0200206555000014050040480209002B
:10317000B9020020B90609002DE9F0418046012777
:1031800087F31088424B434C434E6770002503225F
:10319000C3E90055C3E902551D611D752270A57074
:1031A000C4E90155C4E9035525756575C6E901559E
:1031B00002F02CFC404601F045FE01F0EBFE2846F3
:1031C00002F0AEF9304602F0DDF9344B202283F8EC
:1031D0000853384683F8015383F81523FFF710FF8F
:1031E0002F4B3048227883F83050FF2119612E4947
:1031F0005962042569215D7718622C4D2C481960AD
:1032000002219D62D8621E254FF416708A4283F80F
:1032100032705D61586083F83110D96034D06268D3
:103220000F21002A0CBF0A46022299600021326059
:1032300008460122598319771A765A7602F06AF9FC
:103240006378012B02D01B4802F09AF91A491B4AF5
:10325000002501230D6015702370A570C4E9015588
:10326000C4E9035525756575FFF7EAFA0B4B4FF472
:1032700080714FF40012C3F88011C3F8802185F3E8
:1032800010880448BDE8F0810F219960CEE700BFA7
:103290000C030020F4020020AC02002000E100E05A
:1032A000C002002004070A0D05080B0E01020304EA
:1032B000050607089F020900BC020020B802002092
:1032C00008B5012383F3108802F01EF9002383F36D
:1032D000108808BD08B5012383F3108802F016F9A1
:1032E000002383F3108808BD10B5012383F31088F1
:1032F00002F0C4F8044648B1194B9A780AB95B7DCC
:1033000043B9002383F31088204610BD80F3108852
:10331000204610BD02F0E0FB0128F2D102F01CF9BA
:10332000D0B9002264210F4802F0E2FB0E4B1B7F54
:103330007BB94FF080420D4801210160C2F8003195
:10334000116000BF00BF00BF00BFD2F80031002BEA
:10335000FBD002F093FBD4E7054802F011F9E0E757
:10336000F402002065550000C00200201405004052
:10337000B906090008B5012383F3108802F0BCF8F0
:10338000002383F3108808BD02F0B2B802F0AEB893
:1033900002F0B6B802F0BCB8030CF0B4DC01C3F321
:1033A000C0115A0104F4FF440C4302F04002010A28
:1033B000DE00144306F02006CF01C501344307F4B4
:1033C000FF47C1F3C01605F4FF4237435D004E01CD
:1033D00005F0100506F040062C433E43C0F3C0152F
:1033E0005F08154307F00807420102F04002274337
:1033F000C400154304F020042543CC00020E04F061
:1034000020042643540104F0400CD41144EAC214B1
:1034100044EA0C044FEAD30C0CF0040C5B0947EAB5
:103420000C0703F002033B43470007F010073D433E
:103430004F0007F010073E43D70007F020073C433A
:10344000470807F008073D434F0807F008073E43C9
:103450005700DBB207F010073C431F02C30803F01C
:1034600004031D43CB0803F004031E43530803F079
:1034700008032343440904F002042C43D50805F053
:103480000405490952092B4302F0020201F002012E
:1034900031431343064A074D106247EA0464C9B238
:1034A00044EA0142DBB21343C5F81C35F0BC704757
:1034B000C002002000100040014B186A704700BF96
:1034C000C0020020030CF0B4DC01C3F3C0115A01A8
:1034D00004F4FF440C4302F04002010ADE001443EE
:1034E00006F02006CF01C501344307F4FF47C1F3BE
:1034F000C01605F4FF4237435D004E0105F010058C
:1035000006F040062C433E43C0F3C0155F08154348
:1035100007F00807420102F040022743C4001543A8
:1035200004F020042543CC00020E04F020042643BE
:10353000540104F0400CD41144EAC21444EA0C04CF
:103540004FEAD30C0CF0040C5B0947EA0C0703F0BC
:1035500002033B43470007F010073D434F0007F0CD
:1035600010073E43D70007F020073C43470807F009
:1035700008073D434F0807F008073E435700DBB2FA
:1035800007F010073C431F02C30803F004031D4368
:10359000CB0803F004031E43530803F0080323433E
:1035A000440904F002042C43D50805F00405490938
:1035B00052092B4302F0020201F00201314313438E
:1035C000064A074D506247EA0464C9B244EA014220
:1035D000DBB21343C5F82035F0BC7047C0020020B1
:1035E00000100040072810B5044602D9034801F036
:1035F000C7FF0348204490F8280010BDAF0309001E
:10360000C002002038B505460C4641B165B1084BF3
:10361000C3E901450020BDE8384001F0F5BF054889
:1036200001F0AEFF002DF2D1034801F0A9FFEEE753
:10363000AC020020B8030900B9030900054A064995
:10364000D2F81835487723F4E02343EA0043C2F860
:103650001835704700100040C0020020014B58830D
:10366000704700BFC0020020034A044B82F83000BC
:10367000C3F80C05704700BFC002002000100040D6
:10368000054B83F8320008B1012803D1034BC3F87E
:1036900010057047704700BFC002002000100040B6
:1036A00010B5064B1B68044613B1054B1C7510BDC5
:1036B000044801F065FF024B1C7510BD2403002077
:1036C0000C03002073040900014B1876704700BFFB
:1036D000C0020020014B1877704700BFC0020020D5
:1036E0002DE9F047AB4C23698AB023B36368227895
:1036F0006BB1013B022A63600CD0002B00F0A98063
:10370000A54DA64AA378E96811605BB9A9E0022A31
:1037100040F09F80A04DA14AA378E9681160002B7A
:1037200000F0F48001F042FF637D002B40F0028145
:103730000AB0BDE8F08702F0D5F90028D6D1237889
:10374000012B00F0A580022B6ED001F02FFF6368E3
:10375000E3B12678013B022E636000D0CBB18E4DE1
:103760008E4FA278EB683B60D2B1637D002B40F0B6
:10377000928001F0BFFB01284ED90AA8032300F86C
:10378000143D01F07BFB0AB0BDE8F0872678022EDD
:10379000E5D0814D814FA278AB683B60002AE4D12F
:1037A00094F80180B04579D0002E00F0C680B8F1C1
:1037B000000F00F005817A4BDFF800820026C3F885
:1037C000546500F0D1FD2378C8F81060012BC8E9DA
:1037D0000066C8E9026600F08981022B00F094813E
:1037E0006368FBB1EB683B600AA8042200F8142D63
:1037F0006278227001F042FB00206D6801F098FEB3
:1038000021698D4240F27B816648691A012202F0EB
:103810006FF900232361ACE7634801F0B1FE0AB001
:10382000BDE8F087AB68DEE7604B18780338012805
:103830008CBF00200120002887D0574B59485B6877
:103840005B0819460122236102F052F90AB0BDE873
:10385000F087514D514AA378A9681160002B7FF47D
:1038600061AF01F0A3FE00206D6801F061FE2169E7
:103870008D4203D84E4801F083FE21694948691AF8
:10388000012202F035F9002323610AB0BDE8F08778
:1038900000F05EFDCFE7FEF785FF6AE7012E00F03E
:1038A000AE80C0F02181022E54D0424801F068FE63
:1038B0006E7E012E7FF45DAF2778022F3FF459AF63
:1038C0006368002B7FF455AF002F00F06081012F5B
:1038D00040F0598101F0CCFD00287FF44AAF01F09F
:1038E00085FB00287FF445AF02F0F6F801283FF48D
:1038F00040AF02F0CFF82B7F13B94FF080435F60E9
:10390000002001F015FE0023636032E7274E337874
:10391000033B012B3BD9284F01F048FED7F808851F
:1039200001F05CFE80450DD13378002B9BD1FEF772
:10393000FFFD98E7FEF736FFFAE6FEF781FF94F801
:10394000018034E701F04AFEC7F8080501F070FE77
:10395000A075ECE7184ED6F8087501F03FFE8742D7
:1039600040F0E580114B1B780BB9FEF7E1FD00201C
:103970006E6801F0DDFD21698E4240F2B080094899
:10398000711A012202F0B4F80023236190E76B68FA
:10399000044855E7F4020020C0020020AC020020D9
:1039A00000F00140655500000B050900B902002038
:1039B000DB060900D5040900001000400C030020BC
:1039C000964B4FF44072C3F8082501F051FD0028D2
:1039D0003FF4F1AE022840F2B28003287FF4EBAE50
:1039E000CDE90088434642464146404601F066FC28
:1039F00004283FF4E0AE8A4801F0C2FDDBE6039202
:103A000000F0B2FC01F034FD039A002800F09C8025
:103A10006B8B1BB12189994280F0D88002F062F84B
:103A2000002840F0AC807F4BD3F8086501F0D6FD4C
:103A3000864202D06389013363817B4E3378B3B908
:103A40002378022B01D063688BB101F0B7FB0746E6
:103A500000F0BEF9A27D8DF81900072305A88DF8A6
:103A600018708DF81A208DF8143001F007FA002331
:103A7000337001F0B3FD6B4BC3F8080501F0D8FDBE
:103A8000A07501F0F5FC012807D001F0F1FC022837
:103A900002D0664801F074FD002000F031FB02F016
:103AA000CBF85E4B624AC3F850051268614E52680B
:103AB000C3F85425306850B10378002B40F0A6803D
:103AC000037923B100F072F9306800F051F9012058
:103AD0002E6801F02DFD21698E423FF650AF564809
:103AE00001F04EFD21694AE7104641E701F0C0FCB4
:103AF00000283FD12378022B3FF474AE70E64E4885
:103B000001F03EFD21697FE600F02EFC4B4BC8F82A
:103B100010601E7001F0ACFC0328EBD1CDE900660B
:103B2000334632463146304601F0C8FBE2E701F049
:103B300055FDC6F8080501F07BFDA07515E7414667
:103B4000404601F0B7FA53E701F0D4F90128BED995
:103B50002378022B2AD0666846BBE06801F054FD4A
:103B6000304601F06BFD01F047FA0028AFD0FFF7B7
:103B7000D7F8ACE73146304601F09CFABAE7304856
:103B800001F0FEFC4FE72F4801F0FAFCF1E501F0EF
:103B9000A3FF01283FF4EDAD01F07CFF2B7F002B4C
:103BA0007FF4AEAE4FF080435E60A9E601F05AFDAF
:103BB00000288CD12B7E23B901F03AFDE3689842AE
:103BC00085D101F019FA002881D0D0E7104631469E
:103BD00001F070FA01F0F8FAB4F80890B4F80A802D
:103BE000824601F0EBFA074600F0F2F88DF821006A
:103BF00005A8CDF818A0ADF81C90ADF81E808DF882
:103C000020708DF8146001F039F960E702F014F8C3
:103C1000316800F04BF8306852E700BF00F0014017
:103C20004802090000100040B80200209C0609006C
:103C300024030020BC020020DB060900B90200209A
:103C400081050900EF04090038B5124B124D1B68BD
:103C50005B7D2BB1012000F0BDFA2B8901332B8154
:103C60000E4A0F4B0020C2F85405D3E90014641A21
:103C700001F05EFC29698C4203D80A4801F080FCFF
:103C800029690948611A012201F032FF00232B61E2
:103C900038BD00BF24030020F402002000F00140E2
:103CA000C0020020DB0609006555000070B48B6877
:103CB0002A4A0024C3F840410B7B8C68A23304F5E8
:103CC000A07442F833400B7B4C78CD78A233002CA3
:103CD00036D0234C02EBC30304EB85045C604A7BC3
:103CE0001E4B204C204EA23243F832004A7B8D6896
:103CF000A23203EBC20200205560C4F80C01C4F8E4
:103D000010018A7BA23243F832608A7B4878CC78F3
:103D1000A232E0B9124803EBC20300EB8400586002
:103D20000B7B487B8D7B0D4C012202FA03F302FAD8
:103D300000F10B43AA401343C4F8043570BC70472C
:103D40000A4C02EBC30304EB85045C60C7E7074839
:103D500003EBC20300EB84005860E1E700F0014090
:103D600030600040001000400C11004060600040D6
:103D700083680C4A002110B4C3F84011C37B0A4C7D
:103D8000A233012142F83340C37B8468A23302EBA3
:103D9000C3035C60C37B01FA03F3C2F804355DF82A
:103DA000044B704700F00140101100404279C37984
:103DB0002AB90C33054A012142F823107047183301
:103DC000024A012142F82310704700BF0060004002
:103DD000014B1878704700BF2C030020F0B5A14CB0
:103DE000A14BA24A0225C4F880500026C4F8805096
:103DF0004FF0FF37C4F880510124C3F80873C3F8AB
:103E00000062C3F810611C619C611378A34200F04A
:103E10003981023B012B40F2D180013C00BF00BF41
:103E200000BF00BF00BF00BF00BF00BF00BF00BF9A
:103E300000BF00BF00BF00BF00BF00BF00BF00BF8A
:103E400000BF00BF00BF00BF00BF00BF00BF00BF7A
:103E500000BF00BF00BF00BF00BF00BF00BF00BF6A
:103E600000BF00BF00BF00BF00BF00BF00BF00BF5A
:103E700000BF00BF00BF00BF00BF00BF00BF00BF4A
:103E800000BF00BF00BF00BF00BF00BF00BF00BF3A
:103E9000C3D1754C734D764FDFF8E0E1DFF8E0C138
:103EA00000234FF0FF36C4F81031C4F80032C4F8D4
:103EB00008630226C4F80C31C5F88061C4F80031EB
:103EC000C4F81031C4F804312E6003243960CEF8F0
:103ED00000006849684813705470CCF86405CCF849
:103EE0006015D0F86017536021F0807121F0010156
:103EF00041F08071C0F860172E6039681361137546
:103F000053759375002953D00B79002B52D08B68D1
:103F100003200422C3F80805C3F810250A7C0020FA
:103F200040F20115C2F181020124C3F84025C3F813
:103F30000052C3F80405DC60C3F840010B79D3B12B
:103F4000CB798A7948799B0003F18043120203F50B
:103F5000C04302F47C5242F40032C3F81025D3F877
:103F60001025002872D0C3F81025D3F8102542F090
:103F70000302C3F810250B78D3B1CB788A7849783F
:103F80009B0003F18043120203F5C04302F47C520C
:103F900042F40032C3F81025D3F8102500294AD086
:103FA000C3F81025D3F8102542F00302C3F81025FA
:103FB0002E48F0BD0B78002BFAD0A8E7013D00BFDA
:103FC00000BF00BF00BF00BF00BF00BF00BF00BFF9
:103FD00000BF00BF00BF00BF00BF00BF00BF00BFE9
:103FE00000BF00BF00BF00BF00BF00BF00BF00BFD9
:103FF00000BF00BF00BF00BF00BF00BF00BF00BFC9
:1040000000BF00BF00BF00BF00BF00BF00BF00BFB8
:1040100000BF00BF00BF00BF00BF00BF00BF00BFA8
:1040200000BF00BF00BF00BF00BF00BF00BF00BF98
:1040300000BFC3D12DE742F48012C3F81025D3F896
:10404000102542F00302C3F81025B1E742F48012B4
:10405000C3F81025D3F8102542F00302C3F8102549
:1040600089E700BF00E100E00010004030030020BD
:104070004C030020041100401410004028030020CD
:1040800000F001400623013B00BF00BF00BF00BF9E
:1040900000BF00BF00BF00BF00BF00BF00BF00BF28
:1040A00000BF00BF00BF00BF00BF00BF00BF00BF18
:1040B00000BF00BF00BF00BF00BF00BF00BF00BF08
:1040C00000BF00BF00BF00BF00BF00BF00BF00BFF8
:1040D00000BF00BF00BF00BF00BF00BF00BF00BFE8
:1040E00000BF00BF00BF00BF00BF00BF00BF00BFD8
:1040F00000BF00BF00BF00BF00BF00BFC3D1C8E604
:104100002DE9F8432C4A2D4BDFF8C4802C4C2D4E62
:104110004FF0FF350221C2F80853C3F88011D8F8D8
:104120000010607000236375D1F800E0C4F808E067
:104130000701D1F804C0F559A3610228C4E903C3FB
:10414000656006EB070921D8054699F80B0099F838
:104150000890C2F80092C2F80C31C2F81031C8B908
:10416000C2F804E5D2F8043503B3F319124A5B7AB6
:10417000C2F804330B7D4BB1022D07D102F5F032AA
:104180004FF480610023C2F80415A3750123637501
:10419000BDE8F883C2F804C5D2F80435002BE4D199
:1041A000094801F0EDF9D8F80010DEE7074801F002
:1041B000E7F9D8F80010D8E70010004000E100E06F
:1041C0003003002058630000A1020A009C020A008C
:1041D00028030020F8B5504C637D65780646002B17
:1041E0003CD0237D002B35D101220023022D2275E6
:1041F00063752AD856B9494B1B6813B11A79002A3E
:1042000030D147492B010122CB581A606B1E012B7C
:1042100010D9444B1B681B7D5BB1022D09D1424B69
:10422000D3F804355B0564D5404BD3F80435002B37
:104230005AD0F8BD3A4B03EB05139B7A2370394BE8
:104240001B681B7D002BE8D1F3E73948BDE8F84037
:1042500001F096B9374801F093F9C5E7364801F007
:104260008FF9BEE79A68304FC2F84061197B9868B1
:10427000A23100F5A07047F831001A7B5979D8793E
:10428000A232002939D12D4907EBC20201EB80008F
:104290005060264A24492A480026C2F80C615A7BFD
:1042A000A23241F832005A7B5879DE79A23258BBEB
:1042B000244801EBC20200EB860050601A7B597B58
:1042C000194E012000FA01F100FA02F20A434FF000
:1042D000A041C6F80425D1F810259979CA40D20723
:1042E0005CBF9B6818608CE71748BDE8F84001F098
:1042F00047B9164801F044F996E7124907EBC202A4
:1043000001EB80005060C4E70C4801EBC20200EBF7
:1043100086005060D2E700BF300300204C0300202D
:10432000586300002803002000F001400010004006
:10433000DD020A00B9020A00B8020A00606000400B
:104340000C11004030600040E3020A00E2020A0063
:10435000044BD3F80401A0F10100B0FA80F0400949
:10436000704700BF0010004030B4784A784B79495C
:104370000220C2F880000024C2F880014FF0FF350F
:104380000122C3F80853C3F80042C3F810411A6170
:104390009A610B78934200F09B80023B012B5AD923
:1043A000013A00BF00BF00BF00BF00BF00BF00BF99
:1043B00000BF00BF00BF00BF00BF00BF00BF00BF05
:1043C00000BF00BF00BF00BF00BF00BF00BF00BFF5
:1043D00000BF00BF00BF00BF00BF00BF00BF00BFE5
:1043E00000BF00BF00BF00BF00BF00BF00BF00BFD5
:1043F00000BF00BF00BF00BF00BF00BF00BF00BFC5
:1044000000BF00BF00BF00BF00BF00BF00BF00BFB4
:1044100000BF00BF00BFC3D14D4A4C4800234FF03E
:10442000FF34C2F8103103254B750B704B60C2F896
:1044300000320B75C2F808430224C2F80C314D70EB
:10444000C0F88041C2F80031C2F81031C2F804311E
:10445000046030BC7047013800BF00BF00BF00BF20
:1044600000BF00BF00BF00BF00BF00BF00BF00BF54
:1044700000BF00BF00BF00BF00BF00BF00BF00BF44
:1044800000BF00BF00BF00BF00BF00BF00BF00BF34
:1044900000BF00BF00BF00BF00BF00BF00BF00BF24
:1044A00000BF00BF00BF00BF00BF00BF00BF00BF14
:1044B00000BF00BF00BF00BF00BF00BF00BF00BF04
:1044C00000BF00BF00BF00BF00BF00BFC3D1A3E754
:1044D0000623013B00BF00BF00BF00BF00BF00BFFD
:1044E00000BF00BF00BF00BF00BF00BF00BF00BFD4
:1044F00000BF00BF00BF00BF00BF00BF00BF00BFC4
:1045000000BF00BF00BF00BF00BF00BF00BF00BFB3
:1045100000BF00BF00BF00BF00BF00BF00BF00BFA3
:1045200000BF00BF00BF00BF00BF00BF00BF00BF93
:1045300000BF00BF00BF00BF00BF00BF00BF00BF83
:1045400000BF00BF00BF00BFC3D165E700E100E0CE
:1045500000100040300300202DE9F041934C236906
:10456000627D657801332361002A40F0C68023789C
:10457000032B5ED0022D00F2C480012D00F0CE800E
:10458000022D00F004816278894B120199180D7B8D
:104590002DB18849D1F80C51003518BF01251344BD
:1045A000844A9B7A23700021032BC2F8001200F08A
:1045B000AD804FF0FF30804BC2F80803C2F80C11F9
:1045C000032002226070C3F880217A4A7B4E0023C8
:1045D000C2F80031C2F81031C2F8043132682375D4
:1045E0001269636002B190471DB133689B6803B1E3
:1045F0009847734B1B68D3B11A79C2B19A7B714843
:1046000002F51172002440F82240DA7B02F51172A3
:10461000012140F822405A7B9C7BDD7B01FA02F3AA
:1046200001FA04F21343A9400B43C0F80835BDE872
:10463000F081604ED6F80C31002B9BD0012D00F09C
:10464000D180022D40F01E812369022B00F01F81D2
:104650005D4800F095FF2369012B00F0DF82022BFB
:1046600000F01581032B40F09C80D6F80C31012B13
:1046700002D0564800F084FF4E4BD3F81031012B86
:1046800002D0534800F07CFF4A4BD3F80031012B95
:1046900002D0504800F074FF464B494900224FF0C9
:1046A000FF30C3F80C21C3F81021C3F80021C3F870
:1046B0000421C3F80803C3F800220B687BB11A7801
:1046C0006AB15A7B987BDE7B3E4D012101FA02F3F1
:1046D00001FA00F21343B1400B43C5F80835374ADD
:1046E00000231268237512692370032163606170CF
:1046F000002A9CD0BDE8F0411047374800F040FF49
:1047000035E73648BDE8F04100F03ABF6FF00801E8
:104710000823C2F80813C2F8043356E72369012BB3
:1047200000F0E281022B00F01B82032B7FF47FAFAD
:10473000204A6370022000234FF0FF3120701E4F8B
:10474000C2F80C31C2F80031C2F81031C2F804319D
:10475000C2F82831C2F80032C2F80813A169174E16
:10476000C7F88001013130682375A161017D636064
:10477000002976D0D2F84815124FC2F81C314B42AE
:104780004FF48061A3759561C7F8081569E0236946
:10479000012B00F0E180022B00F03881032B00F0A8
:1047A000D4800F48BDE8F04100F0EABE300300209D
:1047B000586300000010004000E100E028030020E2
:1047C0004C03002000F0014045030A00F5040A00F4
:1047D000F6040A00F7040A0038030A0060030A001E
:1047E00033050A002369032B0CD0B04800F0C8FE43
:1047F0002369012B00F02E82022B00F03182032B63
:104800007FF415AFAA4AAB4DA169AB4E0327677081
:10481000002302204FF0FF372070C2F80C31C2F89D
:104820000031C2F81031C2F80431C2F82831C2F8A0
:104830000032C2F80873C5F8800101313068237571
:10484000A161017D636061B1D2F848159B4DC2F84A
:104850001C314B42A37501214FF480639161C5F86F
:104860000835934BE268D3F804359A4203D0944854
:1048700000F086FE3068C368002B3FF4D8AEBDE878
:10488000F04118478F48BDE8F04100F079BE894AF1
:10489000874B8D48884E042121700221C2F8801177
:1048A000D3F80825A169D2B202700022C3F80C2106
:1048B000C3F80021C3F81021C3F804213368013183
:1048C000A1611B7DB3B17D4BD3F80035580502D4EF
:1048D0007E4800F055FE764B7849D3F84825524281
:1048E000A275002501204FF48062C3F81C51986125
:1048F000C1F808256E4BD3F8003113B1744800F0AD
:104900003FFE6B4BD3F80C3113B1724800F038FE08
:10491000684BD3F80031990702D56F4800F030FE9C
:104920006E4B1B681BB11A78002A40F0598233681D
:10493000DB6803B1984733685A7D002A3FF477AEAD
:104940005B4A1B68C2F8043571E6594BD3F80C3149
:10495000012B3FF491AE8CE6554A564E5F4800213C
:10496000C2F80C110824C2F80011C2F81011C2F8E4
:104970000811C2F804110721C6F88051C2F8044397
:10498000C2F80833C2F800120268002A3FF44FAEA2
:10499000117921B1107B49498340C1F8083513785A
:1049A000002B3FF444AE936844490020C3F8400113
:1049B000937B9068A23300F5A07041F83300937B9D
:1049C0005078D478A233002840F0C381444801EBEA
:1049D000C30300EB8400586093683848414C0021C1
:1049E000C3F84011D37BA233012140F83340D37B7D
:1049F0009468A23300EBC3035C60937BD27B01FA23
:104A000003F391400B43C0F8043510E6294A284BC4
:104A10002D48294E04212170C2F88051D3F8082571
:104A2000A169D2B202700022C3F80C21C3F80021A0
:104A3000C3F81021C3F8042133680131A1611B7D43
:104A4000A3B11E4BD3F800355A0540F19081184BA5
:104A50001A49D3F848255242A275002501204FF487
:104A60008062C3F81C519861C1F80825104BD3F837
:104A70000031002B40F048810D4BD3F80C31002B56
:104A800040F03E810B4BD3F800319B0700F134819D
:104A9000124B1B681BB11A78002A40F03981336829
:104AA000DA68002A3FF448AF904744E740030A0021
:104AB0000010004000E100E02803002000F0014069
:104AC00051040A004A030A002C030020C0040A0013
:104AD000C9040A00CA040A00CB040A004C030020DF
:104AE000606000400C110040AA4BD3F80031012B4C
:104AF00002D0A94800F044FDA64BD3F80431012BA5
:104B000002D0A64800F03CFDA24BA54DD3F80815F5
:104B1000A448C9B2297000224FF0FF350121C3F823
:104B20000021C3F80421C3F80821C3F80853C3F8CF
:104B3000041303681B7D23B19B4B4FF48062C3F8C1
:104B400004259A4B1B681BB11A79002A40F0A280F9
:104B5000904BE268C3F804250B22C3F8002266E5F7
:104B60008C4BD3F80C31012B02D0914800F008FD9A
:104B7000884BD3F81031012B02D08E4800F000FD95
:104B8000844BD3F80031012B02D08B4800F0F8FCA5
:104B9000804BD3F80431002B78D17E4B8348002220
:104BA0000225C3F80C210121C3F81021C3F800210C
:104BB000C3F80421C3F80821C3F800520825C3F83C
:104BC0000813C3F804530368227503206260207041
:104BD000CBB11879002848D09C7B734804F5117438
:104BE00040F82420DC7B04F5117440F824205A7B23
:104BF0009D7BDC7B01FA02F301FA05F21343A1402D
:104C00000B43C0F80835674E33681B6903B19847FA
:104C100033689B68002B7FF432AE08E50022674CB6
:104C2000C6F80C216149C6F800210820C6F81021F9
:104C3000C6F80821C6F804210722C4F88051C6F836
:104C40000403C6F80833C6F800220A68002A7FF475
:104C50009FAEECE4D6F80031012B3FF44DAF48E7AE
:104C6000D6F80C31012B83D07FE71A78002ACAD0FE
:104C70001A7B587B9D7B4C4C01FA02F301FA00F23F
:104C80001343A9401943C4F80815BCE74C4800F089
:104C900077FC82E7597B9868434AA23100F5A070FF
:104CA00042F83100597B5879DD79A231002857D07C
:104CB000444802EBC10200EB850050605D7B3A4A3C
:104CC00041480121A940C2F80415197BA23142F8DC
:104CD0003100197B5879DD79A23100284BD1394850
:104CE00002EBC10200EB85005060197B2E4A0123C4
:104CF0008B40C2F804352BE7344800F041FCC7E68E
:104D0000334800F03DFCBDE6324800F039FCB3E624
:104D1000204A25492C480024C2F80C415A7BA23273
:104D200041F832005A7B5878DC78A23250BB2548D3
:104D300001EBC20200EB84045460597B1A48012243
:104D400002FA01F1C0F80415DB7B9A40C0F808258F
:104D5000A5E61C4801EBC30300EB840058603BE66A
:104D60001D4802EBC10200EB85005060A6E71B481E
:104D700000F006FC6BE6184802EBC10200EB850070
:104D80005060B2E7144801EBC20200EB84045460A7
:104D9000D3E700BF00100040BD030A00BE030A00B5
:104DA0002C0300202803002000F001404C030020C9
:104DB000F3030A00F4030A00F5030A0000E100E02F
:104DC000F6030A00306000400C110040CB040A00DA
:104DD000CA040A00C9040A0060600040C0040A0056
:104DE000134A144914480024C2F80C415A7BA232D9
:104DF00041F832005A7B5878DC78A23288B90F48E3
:104E000001EBC20200EB84005060597B094801228B
:104E100002FA01F1C0F80415DB7B9A40C0F80825BE
:104E200085E5074801EBC20200EB84005060ECE727
:104E30000010004000F001400C11004030600040C4
:104E40006060004010B5044668B1094B09491C6018
:104E500000224FF40010C3F8CC20C3F8D020C3F8D0
:104E6000D420086010BD044800F08AFBEDE700BFC5
:104E70005003002000E100E03E000B0070B5194D2A
:104E80002B6806464BB3D5F8D430092B21D8D5F87A
:104E9000CC400FCE04EB840405EB840404340FC42F
:104EA00033682360D5F8D4300133C5F8D430D5F851
:104EB000CC300133C5F8CC30D5F8CC30092B84BFC9
:104EC0000023C5F8CC30084B4FF40012C3F8002182
:104ED00070BD064800F054FBD9E7054800F050FBD0
:104EE000D1E700BF5003002000E100E04B000B00C1
:104EF0004A000B0010B5074CD4F8D4300A2B02D965
:104F0000054800F03DFBD4F8D400C0F10A00C0B25F
:104F100010BD00BF5003002079000B00F0B5012642
:104F200087B086F310881A4DD5F8D43053B30027D4
:104F3000D5F8D04004EB840405EB840404340FCC92
:104F4000D4F800E0D5F8D440013CC5F8D440D5F8F9
:104F5000D0C001AC0FC40CF10103C5F8D030D5F8B6
:104F6000D030C4F800E0092B88BFC5F8D07087F3B3
:104F700010882B6801A8984786F31088D5F8D4309C
:104F8000002BD5D1002383F3108807B0F0BD00BFFC
:104F90005003002008B500F06BFB124A12490023B1
:104FA000C2E90133C2E90333C1E90033012082F8C9
:104FB000810093619363D361D3631362136453627B
:104FC000536493629364D362D3641363136553632E
:104FD00053651370536182F8803082F85830D3677C
:104FE00008BD00BF3004002028040020014B93F8C6
:104FF000800070473004002010B52A4C237823B974
:1050000094F8803043B9002010BD274800F0B8FA6A
:1050100094F88030002B32D02069606000F0C0FC32
:10502000A060002839D0437813F0010302D194F82E
:1050300081204ABB6068083000F0D0FC02281ED8EE
:10504000E36FB3B1E3600123A068237000B3236969
:105050006360063304EB83030021DA7884F8801060
:105060000132D2B2DA70437862F342034370012016
:1050700010BD00F063FBE067E0600028E3D1237817
:10508000002BC0D0A068E1E70222E3602270DEE7D7
:10509000064800F075FAA068D9E7054800F070FAF4
:1050A000A068C0E73004002098000C00B8000C0095
:1050B0009F000C002DE9F041394C2378013B012B76
:1050C00006460D4612D8B6B12378012B48D1E368C5
:1050D000002B4BD01E78002E4FD17DB994F88070F4
:1050E00000222270F7B13046BDE8F0812D4800F073
:1050F00047FA002EE8D10426002DEFD06568284637
:1051000000F022FC10B1284B00225A55A3688342BC
:10511000E4D0264800F034FA94F88070002222701F
:10512000002FE0D1606908254FF0010800F056FC1F
:1051300080B9606994F880300130082812BF60613E
:1051400000206761002BCED1013DCCD000F046FCA1
:105150000028EED0606984F8808020610123EBE7AD
:10516000134800F00DFAE368002BB3D1114800F0AA
:1051700007FAE3681E78002EAFD0E06F666850B182
:1051800006F1080100F076FB18B10023E367022660
:10519000A3E70226A1E7084800F0F2F9E06FEFE785
:1051A00030040020CD000C0028040020E9000C0091
:1051B000D1000C00D2000C002E020C00014B5868EC
:1051C000704700BF30040020014B9868704700BF53
:1051D00030040020014BD868704700BF3004002025
:1051E000F8B5344C2378002B42D1E06F002845D02D
:1051F0004378C0F10202FF2143F0060312F00302DC
:105200004370017040D0012A817047D0032AC170D9
:1052100047D101711D251146931C4FF0FF36C65032
:105220000344C2F12006043307274FF0FF32082F52
:10523000C3E90022C3E90222C3E9042234D1202EAB
:105240009A6101F12003A5F120020ED0C118FF25BB
:10525000012A8D7003F1010107D00233022A0144B3
:1052600018BF1B188D7018BF9D7003232370F8BDE5
:10527000114800F085F9E06F0028B9D100F05EFA1E
:10528000E0670028B4D1F8BD4FF0FF332026C0F806
:10529000023011463546831D0827C6E71F251146F3
:1052A000BAE71E250221B7E701F11C03A5F11C0294
:1052B000CCE700BF3004002007010C002DE9F84FB7
:1052C000634CDDF82C80E76F82460E469346994684
:1052D0000025002F00F08D802378032B02D05D483D
:1052E00000F04EF9E06F4378DA0756BF94F881205A
:1052F000012282F001021746BAF1000F62D006F1D6
:105300000E016BF3170554F82110C3F3410363F347
:105310001F650A9B00208D42186006F1080BC8F833
:10532000000004D1002A68D10327E06F4BE0E06F52
:1053300000286CD0594600F09DFA8246002855D0CE
:105340000BF1060B002344F82B50E367B9F1000F73
:1053500046D0414D15F806A0BAF1000F5CD1002FE0
:1053600040D0CA460127304600F01AFBC8F80000BA
:10537000002845D0384B01229A55BAF1000FD4D0FD
:1053800094F88060002222703EBB606908254FF0CF
:10539000010800F023FB78B9606994F8803001308F
:1053A000082812BF606100206661B3B9013D14D0C6
:1053B00000F014FB0028EFD0606984F88080206141
:1053C0000123ECE7042700F0FFF90023E36794F8DA
:1053D000806000222270002ED7D03846BDE8F88FBA
:1053E000002FBFD1C8F800700127F0E7C8F800000F
:1053F0009AE71A4800F0C4F86EE782460327B2E73E
:10540000174BC8F80030BAF1000FB9D18DE7154835
:1054100000F0B6F8E06F8DE7304600F0DFFA70B1CB
:10542000304600F091FA0A9B186060B10023AB553A
:105430001FB9C8F800700227C9E7022793E70A4896
:1054400000F09EF8ECE7094800F09AF8EEE700BF9C
:10545000300400202E010C00280400202D010C0037
:10546000880400202E020C0055010C005B010C008A
:10547000014B1878704700BF300400202DE9F0413F
:1054800005460C4600F0BCFA18B900242046BDE8D9
:10549000F0812046294600F0EDF904460028F4D0BA
:1054A000114D2B78002BF1D195F88070002FEDD1A4
:1054B000686908264FF001080CE0686995F88030AB
:1054C0000130082812BF686100206F61002BDDD118
:1054D000013EDBD000F082FA0028EED0686985F842
:1054E000808028612346EBE73004002000F076BA84
:1054F000083000F055BA00BF083000F025BA00BFF0
:10550000083000F06BBA00BF00F018B900F05CB9C9
:1055100000F076BA014B83F8810070473004002018
:10552000024B987058701870704700BFB404002088
:10553000012810B5044602D9024800F021F8024BB8
:105540005C7010BD33000D00B4040020014B1878CE
:10555000704700BFB4040020014B5878704700BF6B
:10556000B4040020044B05495A78187851F82210E9
:1055700098701A70084700BFB40400202000002073
:10558000FCF7FEBE10B5044630B1054A054B146069
:105590000022C3E9002210BD0348FFF7F1FFF4E742
:1055A000B8040020BC04002027000100094B0A4A6F
:1055B00019685368086801338342536008D313683D
:1055C0004868013300218342C2E9003128BF1160DD
:1055D000704700BFB8040020BC04002038B5074D58
:1055E000074C2A68236851688B4204D30548FFF7AB
:1055F000C7FF2A6823689268D05C38BDB8040020D1
:10560000BC0400204400010010B5064B1B685B6819
:105610008342044602D80448FFF7B2FF034B1C60E4
:1056200010BD00BFB80400204C000100BC040020E5
:10563000014B1868704700BFBC04002010B5064B32
:105640001B681B688342044602D80448FFF798FF92
:10565000034B5C6010BD00BFB8040020580001007F
:10566000BC040020014B5868704700BFBC040020F8
:1056700038B52E4B2E4D00245C7028469C70CC22F1
:105680001C70DE211C715C71DC70DC711C729C7101
:105690009C72DC725C725C739C731C731C745C7413
:1056A000DC73DC741C759C749C75DC755C755C76B5
:1056B0009C761C761C775C77DC76DC7783F8204060
:1056C0009C7783F8224083F8234083F8214083F8B5
:1056D000254083F8264083F8244083F8284083F847
:1056E000294083F8274083F82B4083F82C4083F827
:1056F0002A4083F82E4083F82F4083F82D4000F095
:10570000CDFB0C4B0C4A1D6005F1220005F166042F
:10571000586005F1880005F14401C3E90340AA354A
:10572000996006215D61116038BD00BF6C060020E4
:10573000A0050020C8040020C404002010B51C4BA4
:105740001C6874B3621E1B481B4950F822401A6043
:1057500040F8221062B103689C4224D0002303E089
:1057600050F823108C421ED00133DBB29A42F7D896
:10577000124B9C4215D003F12202944211D003F146
:10578000440294420DD003F16602944209D003F121
:105790008802944205D0AA339C4202D00848FFF701
:1057A000EFFE204610BD0748FFF7EAFEF6E700BF10
:1057B000C4040020C8040020ADDEADDEA00500203A
:1057C00078000300F900030070B5224E3268052A04
:1057D00004463AD8204D62B12B689C4231D0002358
:1057E00003E055F823108C422BD00133DBB29A42F0
:1057F000F7D81A4B9C4216D003F122018C4212D0EA
:1058000003F144018C420ED003F166018C420AD0B0
:1058100003F188018C4206D0AA339C4203D0104881
:10582000FFF7AEFE32680F4B55F82210994203D0B5
:105830000D48FFF7A5FE326845F82240013232607C
:1058400070BD0A48FFF79CFEE9E70948FFF798FE9C
:105850003268BFE7C4040020C8040020A00500206F
:1058600081000300ADDEADDE82000300F90003001D
:10587000800003000F29F8B50E46044650D82A4B85
:10588000186868B1294D2B689C4245D0002303E07D
:1058900055F8232094423FD00133DBB28342F7D343
:1058A000234B9C4215D003F12202944211D003F104
:1058B000440294420DD003F16602944209D003F1F0
:1058C0008802944205D0AA339C4202D01948FFF7BF
:1058D00057FE0F2E1ED87100174D8B19EA185078FD
:1058E000022817D8E85C022814D85778507801307D
:1058F000C0B2507050783B44104F022847F8234004
:10590000314484BF002353706B5C01200344DBB23D
:105910006B54F8BD0020F8BD0948FFF731FED5E70C
:105920000848FFF72DFEAAE7C4040020C8040020A1
:10593000A00500208D0003006C060020E00400207C
:10594000F90003008C0003000F2870B51CD842003A
:105950001318104DEE5CEC1806F0FF0196B1A67816
:10596000A1780131C9B2A1703344A6780A49022E48
:1059700051F82310024484BF0023A370AB5C013BA9
:10598000DBB2AB54084670BD0448FFF7F9FD0021B7
:10599000084670BD6C060020E0040020A40003004F
:1059A0000F2808B50DD800EB4000094B195C0344E3
:1059B00001F0FF0251B19A78064B104453F82000D1
:1059C00008BD0548FFF7DCFD002008BD104608BDF6
:1059D0006C060020E0040020B50003000F2808B585
:1059E00005D8054B00EB4000185CC0B208BD034869
:1059F000FFF7C6FD002008BD6C060020C4000300B0
:105A0000014B1868704700BFC4040020F8B5144B60
:105A1000012200215A60DA605A64C3F80815D3F8ED
:105A2000443513B10F48FFF7ABFD0D4A0E4C0F493B
:105A30000F4E104D10484FF0FF37C2F80873002387
:105A40000427C2F84031C2F8107523604FF4807209
:105A5000012433702B700470C1F880210A60F8BDF6
:105A600000800040470004009C06002000E100E0A8
:105A7000A1060020A2060020A00600200349044B36
:105A80000120002208601A70704700BF00800040AB
:105A9000A006002070B40A4B0A4D0B4E0B4C0C486C
:105AA0000C4901221A61DA6000232B704FF48075D3
:105AB0003360C4F8805102700B7070BC704700BF37
:105AC00000800040A10600209C06002000E100E0CC
:105AD000A0060020A2060020014B1878704700BFE6
